:040000000200833245
:01000B0032C2
:0100130032BA
:01001B0032B2
:0100230032AA
:01002B0032A2
:01003300329A
:01003B003292
:01004300328A
:01004B003282
:01005300327A
:01005B003272
:01006300326A
:01006B003262
:01007300325A
:03007B000213E38A
:0300DC0002007EA1
:05007E00120F2C80FEB2
:1000DF00AA82C3EA950F5014C3E50E9A50038A8281
:1000EF0022C3E50F950E5018850F8222C3EA950E95
:1000FF0050038A8222C3E50E950F5004850F82228A
:10010F00850E822285822FC2847582001211C0E56E
:10011F002F75F008A42400FB74F035F0FC74072B46
:10012F00F582E43CF583E0FD74062BF582E43CF5A3
:10013F0083E0F5302003030201E3E52F7003020192
:10014F00E3747C252F50030201E3E52F1475F008AB
:10015F00A4FCAEF0EC2400FFEE34F0F874062FF59B
:10016F0082E438F583E0FFE52F0475F008A4F8A9C1
:10017F00F0E82400FAE934F0FB74062AF582E43B38
:10018F00F583E0F50F85300E8F82C004C005C006E1
:10019F00C000C0011200DF858230D001D000D00630
:1001AF00D005D004EC2400FCEE34F0FE74072CF5DF
:1001BF0082E43EF583E0FAE82400F8E934F0F974BC
:1001CF000728F582E439F583E0F50F8D0E8A821248
:1001DF0000DFAD82AB307A00AC287E00EBC39CFB16
:1001EF00EA9EFAC3E49BE464808AF063F08095F0A2
:1001FF005008E530C39528FA80027A008A308D02C4
:10020F007B00EAC39CFCEB9EFEC3E49CE464808EFF
:10021F00F063F08095F05007EDC39528FA80027ACD
:10022F00008A0520010EE5300303543FF530ED033E
:10023F0003543FFD7A00BA0600400302030274051F
:10024F00C39AF582852F08C002C00512119DD005F3
:10025F00D002EAC40354F8FBE530C39BFB8A047E4B
:10026F00000CBC00010EEEC40354F8CCC403CC6CDC
:10027F00CC54F8CC6CFEAF307800C3EF9CE86480B0
:10028F008EF063F08095F040027B087408C39BF5F5
:10029F00F005F074FF800225E0D5F0FBFB8A047EA9
:1002AF00000CBC00010EEEC40354F8CCC403CC6C9C
:1002BF00CC54F8CC6CFE8D077800C3EC9FEE6480B5
:1002CF0088F063F08095F04019EA04C40354F8FCF9
:1002DF00C39DF5F005F07401800225E0D5F0FBFC1D
:1002EF0042038B82C002C005121131D005D0020A21
:1002FF00020245D28422C28475080075820712114A
:10030F009D7A84758200C002121131D002DAF4D2C4
:10031F0084227A00C2847401B5270280307402B53A
:10032F002702804D7403B527697508007582061280
:10033F00119D7B00BB840040030203E9EB901DD8A5
:10034F0093F582C003121131D0030B80E7750800BB
:10035F0075820612119D7B00BB840040030203E9E6
:10036F00EB901DD893F582C003121131D0030B808F
:10037F00E775080075820612119D7B00BB84005043
:10038F0059EB901EF993F582C003121131D0030B74
:10039F0080EA750E0A750F00852282852383C002BD
:1003AF001216B6E5828583F0D00245F060027A1905
:1003BF00750800758206C00212119DD0027B00BB2A
:1003CF0084005016EA2B901E5C93F582C002C00386
:1003DF00121131D003D0020B80E5D28422C2847473
:1003EF0001B527030204847402B5270302050074C4
:1003FF0003B527028003020556750812758207128E
:10040F00119DE52224FFFAE52334FFFBC002C00350
:10041F007401C0E07420C0E07480C0E0121776E56C
:10042F008124FBF58175083A75820712119DC02250
:10043F00C0237401C0E07420C0E07480C0E01217C4
:10044F0076E58124FBF58175086275820712119D8F
:10045F0074012522FAE43523FBC002C0037401C0E6
:10046F00E07420C0E07480C0E0121776E58124FBB1
:10047F00F5810205CF75081275820712119DE522CD
:10048F0024FEFAE52334FFFBC002C0037401C0E071
:10049F007420C0E07480C0E0121776E58124FBF56C
:1004AF008175083A75820712119DC022C02374010D
:1004BF00C0E07420C0E07480C0E0121776E581249C
:1004CF00FBF58175086275820712119D7402252252
:1004DF00FAE43523FBC002C0037401C0E07420C0EE
:1004EF00E07480C0E0121776E58124FBF5810205E8
:1004FF00CF75080D75820712119D741E2522FAE41F
:10050F003523FB740A2522FCE43523FDE52224F66E
:10051F00FEE52334FFFFE52224E2F8E52334FFF95B
:10052F00C002C003C004C005C006C007C000C001A0
:10053F007404C0E07420C0E07480C0E0121776E548
:10054F008124F5F581807975080875820712119D50
:10055F00E52224F6FAE52334FFFBC002C003740141
:10056F00C0E07420C0E07480C0E0121776E58124EB
:10057F00FBF58175083A75820712119DC022C023C1
:10058F007401C0E07420C0E07480C0E0121776E5FB
:10059F008124FBF58175086C75820712119D740A11
:1005AF002522FAE43523FBC002C0037401C0E074B6
:1005BF0020C0E07480C0E0121776E58124FBF5813E
:1005CF00D2842290DF077412F090DF08E4F090DFFE
:1005DF0017E044C0F090DF1C74EAF090DF1D742A1E
:1005EF00F090DF1EE4F090DF1F741FF090DF237494
:1005FF0088F090DF247431F090DF257409F090DFDC
:10060F0014E4F0227401B5270280137402B5270297
:10061F0080137403B5271590DF0C74FCF02290DF64
:10062F000C74ECF02290DF0C740CF02290DF0C7441
:10063F006CF022AA82AB83ACF0FDC002C003C004F1
:10064F00C0051215DFAE82AF83A8F0F9C006C00750
:10065F00C000C0019030E975F025743B1214E5AE6F
:10066F0082AF83A8F0F9E58124FCF5818E828F8318
:10067F0088F0E91215F2AE82AF83A8F0D005D0044E
:10068F00D003D00290DF09E8F090DF0AEFF07F008F
:10069F007800790090DF0BEEF0E526700FC3EA9437
:1006AF0080EB944BEC94F4ED941240227401B52638
:1006BF000CC3EB94BAEC9445ED941940117402B548
:1006CF002613C3EB9474EC948BED9432500790DFA8
:1006DF001D740AF02290DF1D742AF0221206427553
:1006EF00E10175E1029000021210D2E53175F008B8
:1006FF00A4FAABF0EA2400FCEB34F0FD90DF09E044
:10070F008C828D83F0EA2400FAEB34F0FB74012A1B
:10071F00FCE43BFD90DF0AE08C828D83F074022AAB
:10072F00FCE43BFD90DF0BE08C828D83F074032A99
:10073F00FCE43BFD90DF1CE08C828D83F074042A77
:10074F00FCE43BFD90DF1DE08C828D83F074052A65
:10075F00FCE43BFD90DF1EE08C828D83F074062A53
:10076F00FCE43BFD90DF3AE0FE6306808C828D83D4
:10077F00EEF074072AF582E43BF583E4F075E104AB
:10078F00228582328583337401B52702802074025B
:10079F00B52702802C7403B527617541037542019B
:1007AF007535A8753661E4F537F53802083F7541A0
:1007BF00037542017535507536C3E4F537F538804A
:1007CF006F75412A75420A75352B75362C75370AA8
:1007DF00753800853282853383A3A3A3A3A3750E37
:1007EF000A750F001214BC85820E85830F90000AC4
:1007FF0012162B858232858333803575410D7542F4
:10080F000575354075360D7537037538008532829D
:10081F00853383A3A3750E05750F001214BC858253
:10082F000E85830F90000512162B85823285833338
:10083F00C37467953274029533400302098F753480
:10084F0002AC417D0074C2C39CFE74039DFFE54260
:10085F00C313F879002EF582E93FF583AE427F008E
:10086F008E0E8F0FC004C005C006C007C000C001A8
:10087F00121D59AA82AB83D001D000D007D0068EAB
:10088F000E8F0F8A828B83C006C007C000C0011273
:10089F00162B858243858344D001D000D007D00624
:1008AF00D005D00474ED2CF58274023DF5838E0EC5
:1008BF008F0FC004C005C006C007C000C001121DC5
:1008CF0059AA82AB83D001D000D007D0068E0E8FED
:1008DF000F8A828B83C006C007C000C00112162B7F
:1008EF00858245858346D001D000D007D006D0053C
:1008FF00D00474192CF58274013DF5838E0E8F0F81
:10090F00C004C005C006C007C000C001121D59AA0F
:10091F0082AB83D001D000D007D0068E0E8F0F8A06
:10092F00828B83C006C007C000C00112162BAA829B
:10093F00AB83D001D000D007D006D005D00474E12E
:10094F00C39CFC74019DFDE82CF582E93DF5838E77
:10095F000E8F0FC002C003C006C007121D59AC8214
:10096F00AD83D007D0068E0E8F0F8C828D8312161B
:10097F002BAC82AD83D003D0027E007F01020B2E01
:10098F00C374719532740195334003020A6775344D
:10099F000185414775480074E1C39547F5497401D6
:1009AF009548F54AE542C313F8884B754C00E54B63
:1009BF002549F582E54C354AF583854249754A004C
:1009CF0085490E854A0F121D5985490E854A0F120A
:1009DF00162B858243858344747A2547F5827401EB
:1009EF003548F58385490E854A0F121D5985490EE5
:1009FF00854A0F12162B85824585834674ED254750
:100A0F00F58274023548F58385490E854A0F121D0C
:100A1F005985490E854A0F12162BAA82AB8374692A
:100A2F00C39547F874019548F9E54B28F582E54CD5
:100A3F0039F58385490E854A0FC002C003121D592F
:100A4F0085490E854A0F12162BAC82AD83D003D089
:100A5F00027E027F00020B2E75340085414B754CD0
:100A6F00007469C3954BF5497401954CF54AE542FD
:100A7F00C313F88847754800E5472549F582E548CF
:100A8F00354AF583854249754A0085490E854A0FD7
:100A9F00121D5985490E854A0F12162B85824385E3
:100AAF0083447419254BF5827401354CF5838549C0
:100ABF000E854A0F121D5985490E854A0F12162BA6
:100ACF00858245858346747A254BF5827401354CB2
:100ADF00F58385490E854A0F121D5985490E854AA2
:100AEF000F12162BAA82AB8374C2C3954BF87403F3
:100AFF00954CF9E54728F582E54839F58385490E88
:100B0F00854A0FC002C003121D5985490E854A0F31
:100B1F0012162BAC82AD83D003D0027E017F02C3AD
:100B2F00E5439532E544953350138543328544337D
:100B3F00E526B534248E348A328B33801CC3E532DC
:100B4F009545E53395465011854532854633E52663
:100B5F00B534068F348C328D33853426E4B52602B6
:100B6F00801F7401B52634753980753AD2753B876D
:100B7F00753C16753D40753E7A753FAB75401C80D0
:100B8F0032753940753AB8753BBF753C10753D40AD
:100B9F00753E6C753F847540158018753940753AF0
:100BAF00D5753BA4753C2C753D80753EF4753F564D
:100BBF0075403985320E85330F7510007511009011
:100BCF00424075F00FE4121648AE82AF83A8F0F9D9
:100BDF008E028F0388048905752A42C3E53D9AE585
:100BEF003E9BE53F9CE5409D4047747C252A404154
:100BFF00852A318A828B838CF0EDC002C003C0043A
:100C0F00C005C006C007C000C0011206EBD001D05E
:100C1F0000D007D006D005D004D003D002E5352A86
:100C2F00FAE5363BFBE5373CFCE5383DFD052A8010
:100C3F00AAEEC39535FAEF9536FBE89537FCE995A3
:100C4F0038FD752942C3EA9539EB953AEC953BEDA2
:100C5F00953C4036E529603215298529318A828BEA
:100C6F00838CF0EDC002C003C004C0051206EBD0A8
:100C7F0005D004D003D002EAC39535FAEB9536FBC5
:100C8F00EC9537FCED9538FD80BB853222853323FB
:100C9F001211D81203211203EC853282853383227D
:100CAF00E58275F008A4FAABF0EA2400F582EB3484
:100CBF00F0F583E090DF09F0EA2400FAEB34F0FB63
:100CCF008A828B83A3E090DF0AF08A828B83A3A3AF
:100CDF00E090DF0BF08A828B83A3A3A3E090DF1C4D
:100CEF00F08A828B83A3A3A3A3E090DF1DF08A82F7
:100CFF008B83A3A3A3A3A3E090DF1EF022858227FB
:100D0F001206138522828523830207903001047A0D
:100D1F000480027A107401B5270280107402B5277F
:100D2F0002800D7403B5270C7B01800A7B018006BE
:100D3F007B0A80027B05C002C0031213BEAC82D0B7
:100D4F0003D002BC0103020F07BC0203020E42BC18
:100D5F000303020DF6BC3C03020E66BC3E03020EFB
:100D6F004EBC4103020EA9BC4603020EE8BC480369
:100D7F00020EF4BC4D03020EDCBC4E02803CBC5193
:100D8F0003020E7CBC5303020E36BC5403020E2A20
:100D9F00BC55028043BC5602802FBC5702800DBC4D
:100DAF005E03020E7CBC8703020EA922E4F52BF52D
:100DBF002CF52DF52EF582020D0CE4F52BF52CF507
:100DCF002DF52E758201020D0CE4F52BF52CF52D6A
:100DDF00F52E758203020D0CE4F52BF52CF52DF590
:100DEF002E758202020D0CE4F52BF52CF52DF52E48
:100DFF00B52702800E7401B52702800D7403B52745
:100E0F0014800C758201020D0C758203020D0C7596
:100E1F008202020D0C758200020D0CE4F52BF52CED
:100E2F00F52DF52ED20122E4F52BF52CF52DF52E0F
:100E3F00C20122E4F52BF52CF52DF52EB20122E49B
:100E4F00F52BF52CF52DF52E8B047D00EC2524F5D7
:100E5F0024ED3525F52522E4F52BF52CF52DF52E72
:100E6F00FCE524C39BF524E5259CF52522E4F52B11
:100E7F00F52CF52DF52EAB287C008A057E00ED2B89
:100E8F00FBEE3CFCC3EB94D0EC648094805006EAFC
:100E9F002528FB80027BD08B2822E4F52BF52CF53F
:100EAF002DF52EAB287C008A057E00EBC39DFBEC55
:100EBF009EFCC3E49BE464808CF063F08095F0505B
:100ECF0007E528C39AFA80027A008A2822E4F52BD4
:100EDF00F52CF52DF52EB20022E4F52BF52CF52D82
:100EEF00F52EB20322121394AA82BA482FE4F52BDF
:100EFF00F52CF52DF52E80ED7AFAEA6019C0021265
:100F0F001394AB82D002BB010D900002C0021210ED
:100F1F00D2D0021A80E4EAB4010092022275229321
:100F2F00752303752493752503752602752700C253
:100F3F0000C201752800752900752A83D203C202E9
:100F4F00E4F52BF52CF52DF52E1210FA12110E12C9
:100F5F00111B12113B1205D2852782120D0C7A003C
:100F6F00BA8400400302101CEA901F7D93FBC395C7
:100F7F00295003021018C3E52A9B50030210188B47
:100F8F0082C002C003120CAFD00375E1028B82C086
:100F9F0003120113D003D0027401B5270280057428
:100FAF0003B527117C5E7D018C068D071CBCFF01EC
:100FBF001DEE4F70F3EB75F008A42400FB74F035B1
:100FCF00F0FC74062BFDE43CFE90DF3AE0FF630774
:100FDF00808D828E83EFF030002174072BFFE43C6D
:100FEF00F88D828E83E0FD8F828883E0FEC39D4063
:100FFF00028E058F828883EDF0800B74072BF582AC
:10100F00E43CF583E4F075E1040A020F6F120D1B47
:10101F00AA2BAB2CAC2DAD2E052BE4B52B0C052C30
:10102F00B52C07052DB52D02052EC3744C9A741DD2
:10103F009BE49CE49D5002D2023002687A00C00209
:10104F001211D8D0027BFFBB000280287C00BC04A9
:10105F0000501EEB2AFDC39A92A08D02900002C091
:10106F0002C003C0041210D2D004D003D0020C80EF
:10107F00DD1B80D3C284121188D2841213EC7AFA4A
:10108F00EA6019C002121394AB82D002BB010D901B
:10109F000002C0021210D2D0021A80E4EA700302DA
:1010AF000F4D80D7E522B52408E523B52503020FA0
:1010BF006D8524828525831207908582248583255B
:0310CF00020F6DA0
:101DD8000E020E020E02FE020E020E020E020E028B
:101DE8003E020E020E020E020E02FE020E020E024B
:101DF8000E020E023E020E020E020E020E02FE023B
:101E08000E020E020E020E023E020E020E020E021A
:101E18000E02FE020E020E020E020E023E020E021A
:101E28000E020E020E02FE020E020E020E020E023A
:101E38003E020E020E020E020E02FE020E020E02FA
:101E48000E020E023E020E020E020E020E02FE02EA
:101E58000E020E02020E020202020E020202020E1E
:101E680002020202FE020202020E020202020E0236
:101E78000202020E020202020E020202023E0202E6
:101E880002020E020202020E020202020E02020206
:101E9800020E02020202FE020202020E0202020206
:101EA8000E020202020E020202020E020202023EAA
:101EB800020202020E020202020E020202020E02D6
:101EC8000202020E02020202FE020202020E0202D6
:101ED80002020E020202020E020202020E020202B6
:101EE800023E020202020E020202020E0202020276
:101EF8000E0E02020E0202FE02020E02020E020282
:101F08000E02020E0202FE02020E02020E02020E71
:101F180002020E0202FE02020E02020E02020E026D
:101F2800020E0202FE02020E02020E02020E02025D
:101F38000E0202FE02020E02020E02020E02020E41
:101F48000202FE02020E02020E02020E02020E023D
:101F580002FE02020E02020E02020E02020E02022D
:101F6800FE02020E02020E02020E02020E0202FE21
:101F780002020E0202000B16212C37424D58636EE6
:101F880079010C17222D38434E59646F7A020D18C7
:101F9800232E39444F5A65707B030E19242F3A4576
:101FA800505B66717C040F1A25303B46515C6772A2
:101FB8007D05101B26313C47525D68737E06111C57
:101FC80027323D48535E69747F07121D28333E4906
:101FD800545F6A758008131E29343F4A55606B7632
:101FE8008109141F2A35404B56616C77820A1520E7
:101FF8002B36414C57626D78832564002564202078
:0B2008002564202025642020256400B2
:1010D200AA82AB831ABAFF011BC3E49AE464808B31
:1010E200F063F08095F0500F7CB07D041CBCFF01D2
:1010F2001DEC4D70F780DD2253BEFBE5BE30E6FBF2
:1011020053C6B8E5C620E6FB43BE042243F3284398
:10111200FD1443FE0275FF192275860075C2AA7579
:10112200C530228582C1E58630E1FB5386FD22D29D
:1011320082021125C282021125C291900001121071
:10114200D2D291C284D2A07582E212113675822463
:10115200121136758281121136758260121136753E
:1011620082E612113675820012113675822F121123
:10117200367582A11211367582AF1211367582A4AC
:10118200121136D284227582AC1211367582AE12D9
:1011920011367582A5121136C2A022AA8274B02A13
:1011A200F582121136740F5508F582121136E508D0
:1011B200C4540FFA740F5A2410F582021136AA820F
:1011C200743F5A4440F582021136AA8274015A448D
:1011D200A6F582021136C2847582001211C0758290
:1011E200001211CC7A00EA24F640217508008A82A6
:1011F200C00212119DD0027B84758200C002C0031E
:10120200121131D003D002DBF00A80DAD28422AA92
:101212008253027FC3EA648094A04053EA24E0C26E
:10122200D575F00530E704B2D5F404A430D50AF43C
:101232002401C5F0F43400C5F0FAABF07C00BC0523
:10124200005026EA2413FDEB3420FEEC2DF582E457
:101252003EF583E493F582C002C003C0041211314B
:10126200D004D003D0020C80D57582000211312245
:10201300000000000000005E0000000E000E00281B
:102023007C287C2808547C542026100864002854FB
:1020330028400000000E0000003C42000000423C2B
:102043000000005438540010107C101000806020F1
:102053000010101010000060600000201008040041
:10206300003C423C0000447E40004462524C00224B
:102073004A4A360018147E10002E4A4A32003C4A5F
:102083004A300002621A0600344A4A34000C5252A3
:102093003C00006C6C0000806C2C00000010284495
:1020A30000282828280000442810000004520C00AF
:1020B3003C425A1C007C12127C007E4A4A34003C8B
:1020C300424224007E42423C007E4A4A42007E0A4B
:1020D3000A02003C425274007E08087E0000427EE1
:1020E30042002040403E007E182442007E40404093
:1020F300007E0C0C7E007E0C307E003C42423C0095
:102103007E12120C003C6242BC007E12324C002450
:102113004A52240000027E02003E40403E001E6000
:10212300601E007E30307E006618186600000E7058
:102133000E0062524A4600007E424200040810200C
:10214300000042427E000004020400404040400080
:10215300000204000030482878007E4848300030F0
:10216300484800003048487E003068581000107C12
:1021730012040050A8A898007E0808700000487A4E
:1021830040000040807A007E1028400000427E40DC
:102193000078101870007808087000304848300044
:1021A300F848483000304848F800780808100050D4
:1021B30058682800083E48400038404078000038FE
:1021C3004038007860607800483030480018A040FC
:1021D3003800486858480000083C420000007E0070
:0621E3000000423C080070
:1012720053FD3D53FE034380C24390FC7A007B0042
:10128200BB08004003021390EBFC24F84057EB2B01
:101292002B901297730212AF0212B10212B902120C
:1012A200C10212C90212D10212D90212E1803643DE
:1012B200FD025380FD802E43FE045390FB802643A3
:1012C200FE085390F7801E43FE105390EF801643A2
:1012D200FE205390DF800E43FE405390BF800643B2
:1012E200FE8053907FAD807E00EDF4FDEEF4FEEDC6
:1012F20030E1027C01AD907E00EDF4FDEEF4FEEDF6
:1013020030E2027C02AD907E00EDF4FDEEF4FEEDE3
:1013120030E3027C03AD907E00EDF4FDEEF4FEEDD1
:1013220030E4027C04AD907E00EDF4FDEEF4FEEDBF
:1013320030E5027C05AD907E00EDF4FDEEF4FEEDAD
:1013420030E6027C06AD907E00EDF4FDEEF4FEED9B
:1013520030E7027C07AD807E00EDF4FDEEF4FEED99
:1013620030E6027C08AD807E00EDF4FDEEF4FEED89
:1013720030E7027C09ECB50302800DEA75F00AA49D
:101382002C9021E993F582220B8B02021282758244
:101392000022121272AA82C002121272AB82D00210
:1013A200EAB503028007121272AA8280EA53FD3D57
:1013B20053FE034380C24390FC8A8222121394E5B7
:1013C20082FAB5090280048A0980027A008A82229E
:1021E90000004F4B4E4D015000000000594743205D
:1021F9003C2C033E000000515745525455490000FC
:10220900000041534446484A0000000000825A58E1
:10221900564200000000000083848586000000000B
:1022290000000002875E00000000000000000A4C68
:1013D200538ABFC2EB758D40439A10438C02D2AF41
:1013E20022538ABFC2EB53BEFC3285D50A85D40B89
:1013F20090F4207407F090F4217407F090F42274B2
:1014020007F090F4237407F090F4247407F090F43A
:10141200257407F090F4267404F090F427E4F09019
:10142200F428F090F42974DFF090F42A74BEF0905E
:10143200F42BE4F090F42C7407F090F42D7420F067
:1014420090F42E7442F053BEFBE5BE30E5FBAAC613
:1014520074F85A4441F5C6E5C630E6FB43BE0412B1
:1014620013D285D50A85D40B43D6817A207BF48B9F
:101472000290F427EAF07A207BF490F428EAF07ADA
:10148200277BF48BD57A277BF48AD475D60143C7A0
:101492000243BE07000000E5BE540370030214AA13
:1014A20075D701004387010053C7FD850AD5850B17
:1014B200D475D601E5BE30E5FB227A10E4FBFCE5EB
:1014C2008225E0F582E58333F583EB33FBEC33FCD5
:1014D200EB950EF5F0EC950F4006FCABF043820164
:1014E200DADD22121588BC0003021724EF60FA30FD
:1014F200D502B2D1E583B4FF0302173AE582B4FF05
:101502000302173A258340072482400B0217242442
:101512008314500302173AF582EA8DF0A4A8F0EA88
:101522008EF0A428F8E435F0F9EB8DF0A428E93523
:10153200F0F9E433CA8FF0A429F9EA35F0FAEBF8AE
:101542008EF0A429F9EA35F0FAE433FBEC8DF0A42D
:1015520029F9EA35F0FAE43BFBE88FF0A42AFAEB2A
:1015620035F0FBE433CCFD8EF0A42AFAEB35F0FB28
:10157200E43CFCED8FF0A42BFBEC35F0FC20E70300
:101582001215B6021703AA82AB83A2F73392D16077
:1015920002D2F7F582ACF0E58124F9F8E6FD08E61F
:1015A200FE0886F008E6A2F73392D56002D2F7F57C
:0415B20083AFF022F1
:0600B200E478FFF6D8FD22
:1015B6007804EC700DC9CACBFCE58224F8F582D814
:1015C600F122782020E7111582C3E933F9EA33FACC
:0915D600EB33FBEC33FCD8EC22F2
:100090007900E94400601B7A00902244782F759320
:1000A000F4E493F2A308B800020593D9F4DAF275E8
:0200B00093FFBC
:1015DF00FCABF0AA83A982749EC2D1F5821215B614
:1015EF000217037F9E12161930D103021724C3EF7F
:1015FF009582500974FFF5F0F583F5822279001278
:10160F001D9189828A838BF0EC22AA82AB83A2F789
:10161F003392D16002D2F7F582ACF022E582850ECB
:10162F00F0A4C582C0F0850FF0A4D0F025F0C583DB
:10163F00850EF0A42583F58322AAF0FBE582850EA3
:10164F00F0A4FCADF0E583850EF0A42DFDE435F09C
:10165F00FEE582850FF0A42DFDE5F03EFEE433FF9D
:10166F00EA850EF0A42EFEE5F03FFFE583850FF02F
:10167F00A42EFEE5F03FFFE5828510F0A42EFEE5D7
:10168F00F03FFFEB850EF0A42FFFEA850FF0A42F9C
:10169F00FFE5838510F0A42FFFE5828511F0A42FBD
:1016AF008EF08D838C8222E50E450F60467A01E520
:1016BF000E25E0F50EE50F334012F50FE582950E7E
:1016CF00E583950F40030A80E6C3E50F13F50FE599
:1016DF000E13F50EC3E582950EF5F0E583950F40D9
:1016EF0005F58385F082C3E50F13F50FE50E13F5AE
:0416FF000EDAE122FC
:1000B8007800E84400600A79007593F0E4F309D801
:1000C800FC782FE84404600C790590F000E4F0A374
:0400D800D8FCD9FA7D
:10170300B98003EA13B34010EA2401FAE43BFBE493
:101713003CFC50047C800582BC000EBB000BBA006D
:1017230008E4F5F0F583F58222A2D1E582138CF06B
:1017330092F78B838A8222E4F583F58275F080F435
:10174300A2D11322E4F583F58275F0C0747F22C021
:101753000D85810D121211D00D2285825C85835D6A
:1017630085F05EE4F559F55AF55B850C5F901752E9
:10177300021836C00D85810DE50D24FBF55FE4F5F8
:1017830059F55AF55BE50D24FBF8865C08865D0880
:10179300865E901752121836D00D22AA82C04FC00F
:1017A30050C05174B5C0E07417C0E0C04DC04E8A3C
:1017B30082221581158115810557E4B55702055815
:1017C30022AA8274302AFA24C6500A74072AFA30ED
:1017D30004034302208A8202179EE582FAC4540F4F
:1017E300F582C0021217C4D002740F5AF582021791
:1017F300C485820EAB52AC53AD54AE55AF56750F84
:1018030020EF2FFFEE235401FA4207EB2BFBEC33BF
:10181300FCED33FDEE33FEC3EF950E4008EFC395A9
:101823000EFF430301D50FD98B528C538D548E5524
:101833008F562285824D85834E85594F855A508513
:101843005B51E4F557F558AA5CAB5DAC5E8A828BBD
:10185300838CF0121D3DFD74012AF55CE43BF55DBC
:101863008C5EEDFA7003021D1EBA25028003021D71
:1018730016C205C206C207C208C209C20AC20BC207
:101883000C7560007561007DFFAE5CAF5DAB5E8E75
:10189300828F838BF0121D3DFAA3AE82AF838E5CE1
:1018A3008F5D8B5EBA25078A8212179E80998A0400
:1018B300BC300040268A04EC24C6401FBDFF11E55E
:1018C3006175F00AA42A24D0F56170C3D20680BFE3
:1018D300ED75F00AA42A24D0FD80B4BA2E07BDFF0B
:1018E300AE7D0080AA8A04BC6100400E8A04EC2409
:1018F3008540075302DFD2048002C204BA2002806B
:1019030055BA2B02804BBA2D028041BA4202804B5A
:10191300BA43028050BA4403021AC1BA4603021AF8
:10192300D7BA4903021AC1BA4C028034BA4F030230
:101933001AC8BA5003021A58BA5302804CBA550354
:10194300021ACDBA5803021AD2021ADBD2050218C0
:1019530092D207021892D208021892D20A0218925F
:10196300D20B021892300A0AE55F14F8885F8602E8
:10197300800FE55F24FEF8885F8603088604188BD2
:10198300028A8212179E021AE4E55F24FDF8885F3B
:10199300860308860408860618188B528C538E54C7
:1019A3008B828C838EF0C005121D25AB82AC83D055
:1019B30005BDFF028B0520052CC3EB95615026E581
:1019C30061C39BF561AC618C061C8C61EE60147580
:1019D3008220C003C004C00512179ED005D004D0D6
:1019E3000380E48C618D048552828553838554F092
:1019F300121D3DFDFA60308C051CC3E464808DF03C
:101A030063F08095F050208A82C003C00412179EB1
:101A1300D004D003AD52AE53AF540DBD00010E8DB3
:101A2300528E538F5480C0200503021AE4C3EB95F2
:101A3300614003021AE4E561C39BF561AC618C0567
:101A43001C8C61ED7003021AE2758220C004121728
:101A53009ED00480E9E55F24FDF8885F860508864B
:101A63000608860718188D528E538F54AD54BD80C7
:101A73000040047A438014BD600040047A50800B18
:101A8300BD400040047A4980027A588A82C002121B
:101A9300179E75823A12179E75823012179E7582B1
:101AA3007812179ED002BA4902800BBA5002800600
:101AB3008553821217DD8552821217DD8023D209E6
:101AC30075600A801C756008801775600A8012753E
:101AD3006010800DD20C80098A8212179E80028CBE
:101AE30061300C5AE55F24FCF8885F86040886059C
:101AF3000886060886071818188C528D538E548F43
:101B030055755239755322755480855263855364D4
:101B130085546574012563FFE43564FCAD658F521C
:101B23008C538D548563828564838565F0121D3DD6
:101B3300FCFA700302184A8A8212179E80CCE56071
:101B4300700302184A756217300A2BE55F14F88890
:101B53005FE6FD3395E0FEFFFC8D528E538F548C70
:101B630055200962AC527D007E007F008C528D535C
:101B73008E548F558050300B1FE55F24FCF8885F2F
:101B830086040886050886060886071818188C52E6
:101B93008D538E548F55802EE55F24FEF8885F8623
:101BA3000408860518ED3395E0FEFF8C528D538EA5
:101BB300548F55200910AC52AD537E007F008C52D8
:101BC3008D538E548F55300925AC52AD53AE54E529
:101BD30055FF30E717C3E49CFCE49DFDE49EFEE45F
:101BE3009FFF8C528D538E548F558002C209D20DA4
:101BF300A8627C00755600856082C004C00012177D
:101C0300F4D000D004200D0DE556C4FDE6FE4DF6DC
:101C13001888628002A6560C8C03B20DE552455318
:101C23004554455570CE88628C03E5617003756138
:101C330001200624200521EB04FCAD61C3EC9D507B
:101C430015758220C003C004C00512179ED005D0AD
:101C530004D0031D80E68D6130090E75822DC0030B
:101C630012179ED00315618023EB602030070E7599
:101C7300822BC00312179ED0031561800F30080C0E
:101C8300758220C00312179ED0031561200524AC72
:101C9300618C051C8C61C3EB9D502B3006047D3099
:101CA30080027D208D82C003C00412179ED004D011
:101CB3000380DEC3EB95615008E561C39BF561804A
:101CC3000775610080028C61A8628B041BEC60269F
:101CD300B20D200D0A08E6C4540FFC8C568007860B
:101CE30004740F5CF556855682C003C0001217C4F6
:101CF300D000D00380D420050302184AAB618B04C3
:101D03001BEC700302184A758220C00312179ED081
:101D13000380EB8A8212179E02184A8557828558E0
:021D2300832219
:0B2239003C4E4F20464C4F41543E00ED
:101D2500AA82AB83121D3D6003A380F8C3E5829AA6
:081D3500F582E5839BF5832292
:0D008300758165121DD4E582600302007EC8
:101D3D0020F71430F6148883A88220F507E6A883CF
:101D4D0075830022E280F7E49322E022C2D5E58379
:101D5D0030E70DD2D5E4C39582F582E49583F58302
:101D6D00E50F30E70DB2D5E4C3950EF50EE4950FF2
:101D7D00F50F1214BC30D50BE4C39582F582E495B2
:101D8D0083F583226040F82582500274FFF582E8C6
:101D9D0024F8501ECCCBCAF9E4CC24F85014CBCA8D
:101DAD00F9E4CB24F8500BCAF9E4CA24F8500379AE
:101DBD00002224086010F8C3EC13FCEB13FBEA13AC
:0B1DCD00FAE913F9D8F1227582002218
:00000001FF
