:040000000200833245
:01000B0032C2
:0100130032BA
:01001B0032B2
:0100230032AA
:01002B0032A2
:01003300329A
:01003B003292
:01004300328A
:01004B003282
:01005300327A
:01005B003272
:01006300326A
:01006B003262
:01007300325A
:03007B000211B7B8
:0300DC0002007EA1
:05007E00120D4C80FE94
:1000DF0085822BC284758200120F9430016EE52B3E
:1000EF0075F008A42400FB74F035F0FC74072BF5B1
:1000FF0082E43CF583E0FDFE7F00A8287900EEC383
:10010F0098FEEF99FFC3E49EE464808FF063F08064
:10011F0095F05007EDC39528FD80027D0074062BE6
:10012F00F582E43CF583E0FBFC7E00C398F8EE9982
:10013F00F9C3E498E4648089F063F08095F0500788
:10014F00EBC39528FB80027B0002020BE52B75F0B9
:10015F0008A42400FC74F035F0FE74062CF582E43C
:10016F003EF583E0FF780085282C752D00EFC395B1
:10017F002CF9E8952DA2E713C913C9A2E713C913E8
:10018F00C9FAC3E499E464808AF063F08095F05073
:10019F0018EFC3952CFFE8952DF8A2E713CF13CFD7
:1001AF00A2E713CF13CFFA80047F007A008F037476
:1001BF00072CF582E43EF583E0FA7C00C3952CFE14
:1001CF00EC952DA2E713CE13CEA2E713CE13CEFFDD
:1001DF00C3E49EE464808FF063F08095F05017EADB
:1001EF00C3952CFAEC952DA2E713CA13CAA2E713F5
:1001FF00CA13CAFC80047A007C008A057A00BA060A
:10020F000040030202D17405C39AF582852B08C002
:10021F0002C003C005120F71D005D003D002EAC48B
:10022F000354F8FCEBC39CFC8A067F000EBE000152
:10023F000FEFC40354F8CEC403CE6ECE54F8CE6E77
:10024F00FF8B007900C3E89EE964808FF063F08034
:10025F0095F040027C087408C39CF5F005F074FF1C
:10026F00800225E0D5F0FBFC8A067F000EBE000160
:10027F000FEFC40354F8CEC403CE6ECE54F8CE6E37
:10028F00FF8D007900C3EE98EF648089F063F080F2
:10029F0095F04019EA04C40354F8FEC39DF5F00528
:1002AF00F07401800225E0D5F0FBFE42048C82C081
:1002BF0002C003C005120F05D005D003D0020A02F9
:1002CF00020DD284227A00C2847401B527028007FE
:1002DF007402B527478024750800758206120F71C6
:1002EF007B00BB84004003020373EB901D8293F5E8
:1002FF0082C003120F05D0030B80E77508007582CB
:10030F0006120F717B00BB84005059EB901EA39314
:10031F00F582C003120F05D0030B80EA750E0A7524
:10032F000F00852282852383C00212148AE58285FD
:10033F0083F0D00245F060027A19750800758206C5
:10034F00C002120F71D0027B00BB84005016EA2B43
:10035F00901E0693F582C002C003120F05D003D082
:10036F00020B80E5D28422C2847401B52702800B70
:10037F007402B5270302040602045C750812758225
:10038F0007120F71E52224FEFAE52334FFFBC002AA
:10039F00C0037427C0E0741FC0E07480C0E0121562
:1003AF004AE58124FBF58175083A758207120F71B2
:1003BF00C022C0237427C0E0741FC0E07480C0E067
:1003CF0012154AE58124FBF58175086275820712C3
:1003DF000F7174022522FAE43523FBC002C00374A7
:1003EF0027C0E0741FC0E07480C0E012154AE58199
:1003FF0024FBF5810204D575080D758207120F7164
:10040F00741E2522FAE43523FB740A2522FCE435F9
:10041F0023FDE52224F6FEE52334FFFFE52224E247
:10042F00F8E52334FFF9C002C003C004C005C006BD
:10043F00C007C000C001742AC0E0741FC0E0748000
:10044F00C0E012154AE58124F5F581807975080819
:10045F00758207120F71E52224F6FAE52334FFFBAC
:10046F00C002C0037427C0E0741FC0E07480C0E0F6
:10047F0012154AE58124FBF58175083A758207123A
:10048F000F71C022C0237427C0E0741FC0E07480B6
:10049F00C0E012154AE58124FBF58175086C758261
:1004AF0007120F71740A2522FAE43523FBC002C02C
:1004BF00037427C0E0741FC0E07480C0E012154AB7
:1004CF00E58124FBF581D2842290DF077412F0902E
:1004DF00DF08E4F090DF17E044C0F090DF1C74EA0F
:1004EF00F090DF1D742AF090DF1EE4F090DF1F7490
:1004FF001FF090DF237488F090DF247431F090DFC9
:10050F00257409F090DF14E4F0227401B5270280FE
:10051F00077402B52710800790DF0C74ECF022905F
:10052F00DF0C740CF02290DF0C746CF022AA82ABFB
:10053F0083ACF0FDC002C003C004C0051213B3AEFC
:10054F0082AF83A8F0F9C006C007C000C001903089
:10055F00E975F025743B1212B9AE82AF83A8F0F99A
:10056F00E58124FCF5818E828F8388F0E91213C612
:10057F00AE82AF83A8F0D005D004D003D00290DFB5
:10058F0009E8F090DF0AEFF07F007800790090DF44
:10059F000BEEF0E526700FC3EA9480EB944BEC94CE
:1005AF00F4ED941240227401B5260CC3EB94BAEC0F
:1005BF009445ED941940117402B52613C3EB94744E
:1005CF00EC948BED9432500790DF1D740AF022905B
:1005DF00DF1D742AF02212053C75E10175E10290CE
:1005EF000002120EA6E52E75F008A4FAABF0EA246D
:1005FF0000FCEB34F0FD90DF09E08C828D83F0EA94
:10060F002400FAEB34F0FB74012AFCE43BFD90DF8D
:10061F000AE08C828D83F074022AFCE43BFD90DFAC
:10062F000BE08C828D83F074032AFCE43BFD90DF9A
:10063F001CE08C828D83F074042AFCE43BFD90DF78
:10064F001DE08C828D83F074052AFCE43BFD90DF66
:10065F001EE08C828D83F074062AFCE43BFD90DF54
:10066F003AE0FE6306808C828D83EEF074072AF5E4
:10067F0082E43BF583E4F075E1042285822F8583C4
:10068F00307401B5270280077402B5274F801375A8
:10069F003E03753F017532447533C3E4F534F535C8
:1006AF00806F753E2A753F1475328875332B7534FC
:1006BF000A753500740A252FF582E43530F58375F8
:1006CF000E14750F0012129085820E85830F900005
:1006DF00141213FF85822F8583308035753E0D757B
:1006EF003F0575321075330D753403753500852F41
:1006FF0082853083A3A3750E05750F0012129085A6
:10070F00820E85830F9000051213FF85822F85833C
:10071F0030C37467952F74029530400302087075CB
:10072F003102AC3E7D0074C2C39CFE74039DFFE595
:10073F003FC313F879002EF582E93FF583AE3F7F73
:10074F00008E0E8F0FC004C005C006C007C000C0CA
:10075F0001121B2DAA82AB83D001D000D007D00687
:10076F008E0E8F0F8A828B83C006C007C000C00118
:10077F001213FF858240858341D001D000D007D06E
:10078F0006D005D00474ED2CF58274023DF5838EEE
:10079F000E8F0FC004C005C006C007C000C00112F5
:1007AF001B2DAA82AB83D001D000D007D0068E0EAE
:1007BF008F0F8A828B83C006C007C000C00112133F
:1007CF00FF858242858343D001D000D007D006D069
:1007DF0005D00474192CF58274013DF5838E0E8FAC
:1007EF000FC004C005C006C007C000C001121B2DFA
:1007FF00AA82AB83D001D000D007D0068E0E8F0F08
:10080F008A828B83C006C007C000C0011213FFAAE3
:10081F0082AB83D001D000D007D006D005D00474AE
:10082F00E1C39CFC74019DFDE82CF582E93DF58345
:10083F008E0E8F0FC002C003C006C007121B2DAC57
:10084F0082AD83D007D0068E0E8F0F8C828D8312D0
:10085F0013FFAC82AD83D003D0027E007F01020A6A
:10086F000FC37471952F74019530400302094875B9
:10087F003101853E4475450074E1C39544F54674D6
:10088F00019545F547E53FC313F88848754900E5DD
:10089F00482546F582E5493547F583853F46754737
:1008AF000085460E85470F121B2D85460E85470F77
:1008BF001213FF858240858341747A2544F5827433
:1008CF00013545F58385460E85470F121B2D85464D
:1008DF000E85470F1213FF85824285834374ED25E2
:1008EF0044F58274023545F58385460E85470F1210
:1008FF001B2D85460E85470F1213FFAA82AB8374FB
:10090F0069C39544F874019545F9E54828F582E5E2
:10091F004939F58385460E85470FC002C003121B68
:10092F002D85460E85470F1213FFAC82AD83D00382
:10093F00D0027E027F00020A0F753100853E487596
:10094F0049007469C39548F54674019549F547E523
:10095F003FC313F88844754500E5442546F582E505
:10096F00453547F583853F4675470085460E8547D4
:10097F000F121B2D85460E85470F1213FF858240E0
:10098F0085834174192548F58274013549F58385AE
:10099F00460E85470F121B2D85460E85470F1213E6
:1009AF00FF858242858343747A2548F58274013529
:1009BF0049F58385460E85470F121B2D85460E85FB
:1009CF00470F1213FFAA82AB8374C2C39548F87402
:1009DF00039549F9E54428F582E54539F5838546C0
:1009EF000E85470FC002C003121B2D85460E85478B
:1009FF000F1213FFAC82AD83D003D0027E017F02B2
:100A0F00C3E540952FE5419530501385402F854123
:100A1F0030E526B531248E318A2F8B30801CC3E50B
:100A2F002F9542E5309543501185422F854330E590
:100A3F0026B531068F318C2F8D30853126E4B526C2
:100A4F0002801F7401B526347536807537D275381C
:100A5F0087753916753A40753B7A753CAB753D1CF9
:100A6F0080327536407537B87538BF753910753A9D
:100A7F0040753B6C753C84753D1580187536407517
:100A8F0037D57538A475392C753A80753BF4753C9C
:100A9F0056753D39852F0E85300F75100075110075
:100AAF0090424075F00FE412141CAE82AF83A8F091
:100ABF00F98E028F0388048905752A42C3E53A9A95
:100ACF00E53B9BE53C9CE53D9D4047747C252A40DA
:100ADF0041852A2E8A828B838CF0EDC002C003C021
:100AEF0004C005C006C007C000C0011205E5D00153
:100AFF00D000D007D006D005D004D003D002E53205
:100B0F002AFAE5333BFBE5343CFCE5353DFD052A90
:100B1F0080AAEEC39532FAEF9533FBE89534FCE9E2
:100B2F009535FD752942C3EA9536EB9537EC953827
:100B3F00ED95394036E5296032152985292E8A82AF
:100B4F008B838CF0EDC002C003C004C0051205E515
:100B5F00D005D004D003D002EAC39532FAEB953317
:100B6F00FBEC9534FCED9535FD80BB852F22853050
:100B7F0023120FAC1202D4120376852F8285308395
:100B8F0022E58275F008A4FAABF0EA2400F582EBB7
:100B9F0034F0F583E090DF09F0EA2400FAEB34F04B
:100BAF00FB8A828B83A3E090DF0AF08A828B83A378
:100BBF00A3E090DF0BF08A828B83A3A3A3E090DFE7
:100BCF001CF08A828B83A3A3A3A3E090DF1DF08A7E
:100BDF00828B83A3A3A3A3A3E090DF1EF0228582C1
:100BEF002712051985228285238302068A30010484
:100BFF007A0480027A107401B5270280077402B557
:100C0F00270A80047B0180067B1480027B05C002CB
:100C1F00C003121192AC82D003D002BC0103020DAB
:100C2F0027BC0203020CB6BC03028056BC3C030275
:100C3F000CC8BC3E03020CB9BC4103020CFABC4DFC
:100C4F0003020D24BC4E02802DBC5103020CD6BCF6
:100C5F0053028050BC54028048BC5502801EBC57C2
:100C6F0002800DBC5E03020CD6BC8703020CFA2275
:100C7F00758200020BED758201020BED7582020287
:100C8F000BEDE4B5270280077401B5270E800675BA
:100C9F008201020BED758202020BED758200020BD1
:100CAF00EDD20122C20122B201228B047D00EC257C
:100CBF0024F524ED3525F525227C00E524C39BF58D
:100CCF0024E5259CF52522AB287C008A057E00EDC6
:100CDF002BFBEE3CFCC3EB94D0EC6480948050066D
:100CEF00EA2528FB80027BD08B2822AB287C008A48
:100CFF00057E00EBC39DFBEC9EFCC3E49BE464808C
:100D0F008CF063F08095F05007E528C39AFA8002C3
:100D1F007A008A2822B200227AFAEA6019C00212F7
:100D2F001168AB82D002BB010D900004C002120EFD
:100D3F00A6D0021A80E4EAB401009202227522932F
:100D4F00752303752493752503752602752700C235
:100D5F0000C201752800752900752A83C202120E80
:100D6F00CE120EE2120EEF120F0F1204D885278249
:100D7F00120BEDAA29C3EA952A4003020E198A82A3
:100D8F00C002120B90D00275E1028A82C0021200DB
:100D9F00DFD0027401B527117B5E7C018B058C06B9
:100DAF001BBBFF011CED4E70F3EA75F008A4240085
:100DBF00FB74F035F0FC74062BFDE43CFE90DF3A3B
:100DCF00E0FF6307808D828E83EFF030002A740777
:100DDF002BFFE43CF88D828E83E0F98F828883E0CD
:100DEF00F54AC39950088D828E83E0FD8002AD4A8B
:100DFF008F828883EDF0800B74072BF582E43CF52E
:100E0F0083E4F075E1040A020D84120BFC300268D2
:100E1F007A00C002120FACD0027BFFBB0002802809
:100E2F007C00BC0400501EEB2AFDC39A92A08D02D9
:100E3F00900002C002C003C004120EA6D004D0035B
:100E4F00D0020C80DD1B80D3C284120F5CD28412BF
:100E5F0011C07AFAEA6019C002121168AB82D0028F
:100E6F00BB010D900002C002120EA6D0021A80E440
:100E7F00EA7003020D6B80D7E522B52408E523B590
:100E8F002503020D8285248285258312068A858299
:070E9F0024858325020D826A
:101BAC00000000000000005E0000000E000E002887
:101BBC007C287C2808547C54202610086400285467
:101BCC0028400000000E0000003C42000000423C97
:101BDC000000005438540010107C1010008060205D
:101BEC0000101010100000606000002010080400AD
:101BFC00003C423C0000447E40004462524C0022B7
:101C0C004A4A360018147E10002E4A4A32003C4ACA
:101C1C004A300002621A0600344A4A34000C52520E
:101C2C003C00006C6C0000806C2C00000010284400
:101C3C0000282828280000442810000004520C001A
:101C4C003C425A1C007C12127C007E4A4A34003CF6
:101C5C00424224007E42423C007E4A4A42007E0AB6
:101C6C000A02003C425274007E08087E0000427E4C
:101C7C0042002040403E007E182442007E404040FE
:101C8C00007E0C0C7E007E0C307E003C42423C0000
:101C9C007E12120C003C6242BC007E12324C0024BC
:101CAC004A52240000027E02003E40403E001E606C
:101CBC00601E007E30307E006618186600000E70C4
:101CCC000E0062524A4600007E4242000408102078
:101CDC00000042427E0000040204004040404000EC
:101CEC00000204000030482878007E48483000305C
:101CFC00484800003048487E003068581000107C7E
:101D0C0012040050A8A898007E0808700000487AB9
:101D1C0040000040807A007E1028400000427E4047
:101D2C0000781018700078080870003048483000AF
:101D3C00F848483000304848F8007808081000503F
:101D4C0058682800083E4840003840407800003869
:101D5C004038007860607800483030480018A04067
:101D6C003800486858480000083C420000007E00DB
:101D7C000000423C08000E020E020E02FE020E0291
:101D8C000E020E020E023E020E020E020E020E0297
:101D9C00FE020E020E020E020E023E020E020E0297
:101DAC000E020E02FE020E020E020E020E023E0287
:101DBC000E020E020E020E02FE020E020E020E02A7
:101DCC000E023E020E020E020E020E02FE020E0267
:101DDC000E020E020E023E020E020E020E020E0247
:101DEC00FE020E020E020E020E023E020E020E0247
:101DFC000E020E02FE020E020E02020E020202027F
:101E0C000E020202020E02020202FE020202020E86
:101E1C00020202020E020202020E020202020E0272
:101E2C000202023E020202020E020202020E020232
:101E3C0002020E020202020E02020202FE02020262
:101E4C00020E020202020E020202020E0202020242
:101E5C000E020202023E020202020E020202020EF6
:101E6C00020202020E020202020E02020202FE0232
:101E7C000202020E020202020E020202020E020212
:101E8C0002020E020202023E020202020E020202D2
:101E9C00020E020202020E0E02020E0202FE0202EA
:101EAC000E02020E02020E02020E0202FE02020ECE
:101EBC0002020E02020E02020E0202FE02020E02CA
:101ECC00020E02020E02020E0202FE02020E0202BA
:101EDC000E02020E02020E0202FE02020E02020E9E
:101EEC0002020E02020E0202FE02020E02020E029A
:101EFC00020E02020E0202FE02020E02020E02028A
:101F0C000E02020E0202FE02020E02020E02020E6D
:101F1C0002020E0202FE02020E0202256400256479
:0D1F2C00202025642020256420202564004D
:100EA600AA82AB831ABAFF011BC3E49AE464808B5F
:100EB600F063F08095F0500F7CB07D041CBCFF0100
:100EC6001DEC4D70F780DD2253BEFBE5BE30E6FB20
:100ED60053C6B8E5C620E6FB43BE042243F32843C7
:100EE600FD1443FE0275FF192275860075C2AA75A8
:100EF600C530228582C1E58630E1FB5386FD22D2CC
:100F060082020EF9C282020EF9C291900001120EFF
:100F1600A6D291C284D2A07582E2120F0A758224EB
:100F2600120F0A758281120F0A758260120F0A75F6
:100F360082E6120F0A758200120F0A75822F120FAF
:100F46000A7582A1120F0A7582AF120F0A7582A462
:100F5600120F0AD284227582AC120F0A7582AE1263
:100F66000F0A7582A5120F0AC2A022AA8274B02A9D
:100F7600F582120F0A740F5508F582120F0AE5085A
:100F8600C4540FFA740F5A2410F582020F0AAA826B
:100F9600743F5A4440F582020F0AAA8274015A44E9
:100FA600A6F582020F0AC284758200120F9475821A
:100FB60000120FA07A00EA24F640217508008A8202
:100FC600C002120F71D0027B84758200C002C0037A
:100FD600120F05D003D002DBF00A80DAD28422AAEF
:100FE6008253027FC3EA648094A04053EA24E0C29D
:100FF600D575F00530E704B2D5F404A430D50AF46B
:101006002401C5F0F43400C5F0FAABF07C00BC0551
:10101600005026EA2439FDEB341FFEEC2DF582E460
:101026003EF583E493F582C002C003C004120F05A7
:10103600D004D003D0020C80D5758200020F0522A1
:101F3900000000000000005E0000000E000E0028F6
:101F49007C287C2808547C542026100864002854D6
:101F590028400000000E0000003C42000000423C06
:101F69000000005438540010107C101000806020CC
:101F7900001010101000006060000020100804001C
:101F8900003C423C0000447E40004462524C002226
:101F99004A4A360018147E10002E4A4A32003C4A3A
:101FA9004A300002621A0600344A4A34000C52527E
:101FB9003C00006C6C0000806C2C00000010284470
:101FC90000282828280000442810000004520C008A
:101FD9003C425A1C007C12127C007E4A4A34003C66
:101FE900424224007E42423C007E4A4A42007E0A26
:101FF9000A02003C425274007E08087E0000427EBC
:1020090042002040403E007E182442007E4040406D
:10201900007E0C0C7E007E0C307E003C42423C006F
:102029007E12120C003C6242BC007E12324C00242B
:102039004A52240000027E02003E40403E001E60DB
:10204900601E007E30307E006618186600000E7033
:102059000E0062524A4600007E42420004081020E7
:10206900000042427E00000402040040404040005B
:10207900000204000030482878007E4848300030CB
:10208900484800003048487E003068581000107CED
:1020990012040050A8A898007E0808700000487A29
:1020A90040000040807A007E1028400000427E40B7
:1020B900007810187000780808700030484830001F
:1020C900F848483000304848F800780808100050AF
:1020D90058682800083E48400038404078000038D9
:1020E9004038007860607800483030480018A040D7
:1020F9003800486858480000083C420000007E004B
:062109000000423C08004A
:1010460053FD3D53FE034380C24390FC7A007B0070
:10105600BB08004003021164EBFC24F84057EB2B5D
:101066002B90106B7302108302108502108D0210F4
:101076009502109D0210A50210AD0210B5803643F0
:10108600FD025380FD802E43FE045390FB802643D1
:10109600FE085390F7801E43FE105390EF801643D0
:1010A600FE205390DF800E43FE405390BF800643E0
:1010B600FE8053907FAD807E00EDF4FDEEF4FEEDF4
:1010C60030E1027C01AD907E00EDF4FDEEF4FEED24
:1010D60030E2027C02AD907E00EDF4FDEEF4FEED12
:1010E60030E3027C03AD907E00EDF4FDEEF4FEED00
:1010F60030E4027C04AD907E00EDF4FDEEF4FEEDEE
:1011060030E5027C05AD907E00EDF4FDEEF4FEEDDB
:1011160030E6027C06AD907E00EDF4FDEEF4FEEDC9
:1011260030E7027C07AD807E00EDF4FDEEF4FEEDC7
:1011360030E6027C08AD807E00EDF4FDEEF4FEEDB7
:1011460030E7027C09ECB50302800DEA75F00AA4CB
:101156002C90210F93F582220B8B0202105675827A
:101166000022121046AA82C002121046AB82D0029A
:10117600EAB503028007121046AA8280EA53FD3DB3
:1011860053FE034380C24390FC8A8222121168E513
:1011960082FAB5090280048A0980027A008A8222CC
:10210F0000004F4B4E4D0150000000005947432037
:10211F003C2C033E000000515745525455490000D6
:10212F00000041534446484A0000000000825A58BC
:10213F0056420000000000008384858600000000E6
:10214F0000000002875E00000000000000000A4C43
:1011A600538ABFC2EB758D40439A10438C02D2AF6F
:1011B60022538ABFC2EB53BEFC3285D50A85D40BB7
:1011C60090F4207407F090F4217407F090F42274E0
:1011D60007F090F4237407F090F4247407F090F469
:1011E600257407F090F4267404F090F427E4F09048
:1011F600F428F090F42974DFF090F42A74BEF0908D
:10120600F42BE4F090F42C7407F090F42D7420F095
:1012160090F42E7442F053BEFBE5BE30E5FBAAC641
:1012260074F85A4441F5C6E5C630E6FB43BE0412DF
:1012360011A685D50A85D40B43D6817A207BF48BFB
:101246000290F427EAF07A207BF490F428EAF07A08
:10125600277BF48BD57A277BF48AD475D60143C7CE
:101266000243BE07000000E5BE5403700302127E6F
:1012760075D701004387010053C7FD850AD5850B45
:10128600D475D601E5BE30E5FB227A10E4FBFCE519
:101296008225E0F582E58333F583EB33FBEC33FC03
:1012A600EB950EF5F0EC950F4006FCABF043820192
:1012B600DADD2212135CBC00030214F8EF60FA3088
:1012C600D502B2D1E583B4FF0302150EE582B4FF61
:1012D6000302150E258340072482400B0214F824CE
:1012E6008314500302150EF582EA8DF0A4A8F0EAE5
:1012F6008EF0A428F8E435F0F9EB8DF0A428E93552
:10130600F0F9E433CA8FF0A429F9EA35F0FAEBF8DC
:101316008EF0A429F9EA35F0FAE433FBEC8DF0A45B
:1013260029F9EA35F0FAE43BFBE88FF0A42AFAEB58
:1013360035F0FBE433CCFD8EF0A42AFAEB35F0FB56
:10134600E43CFCED8FF0A42BFBEC35F0FC20E7032E
:1013560012138A0214D7AA82AB83A2F73392D16002
:1013660002D2F7F582ACF0E58124F9F8E6FD08E64D
:10137600FE0886F008E6A2F73392D56002D2F7F5AA
:0413860083AFF0221F
:0600B200E478FFF6D8FD22
:10138A007804EC700DC9CACBFCE58224F8F582D842
:10139A00F122782020E7111582C3E933F9EA33FAFA
:0913AA00EB33FBEC33FCD8EC2220
:100090007900E94400601B7A0090216A782F7593FB
:1000A000F4E493F2A308B800020593D9F4DAF275E8
:0200B00093FFBC
:1013B300FCABF0AA83A982749EC2D1F58212138A70
:1013C3000214D77F9E1213ED30D1030214F8C3EF3A
:1013D3009582500974FFF5F0F583F58222790012A6
:1013E3001B6589828A838BF0EC22AA82AB83A2F7E6
:1013F3003392D16002D2F7F582ACF022E582850EFA
:10140300F0A4C582C0F0850FF0A4D0F025F0C58309
:10141300850EF0A42583F58322AAF0FBE582850ED1
:10142300F0A4FCADF0E583850EF0A42DFDE435F0CA
:10143300FEE582850FF0A42DFDE5F03EFEE433FFCB
:10144300EA850EF0A42EFEE5F03FFFE583850FF05D
:10145300A42EFEE5F03FFFE5828510F0A42EFEE505
:10146300F03FFFEB850EF0A42FFFEA850FF0A42FCA
:10147300FFE5838510F0A42FFFE5828511F0A42FEB
:101483008EF08D838C8222E50E450F60467A01E54E
:101493000E25E0F50EE50F334012F50FE582950EAC
:1014A300E583950F40030A80E6C3E50F13F50FE5C7
:1014B3000E13F50EC3E582950EF5F0E583950F4007
:1014C30005F58385F082C3E50F13F50FE50E13F5DC
:0414D3000EDAE1222A
:1000B8007800E84400600A79007593F0E4F309D801
:1000C800FC782FE84404600C790590F000E4F0A374
:0400D800D8FCD9FA7D
:1014D700B98003EA13B34010EA2401FAE43BFBE4C2
:1014E7003CFC50047C800582BC000EBB000BBA009C
:1014F70008E4F5F0F583F58222A2D1E582138CF09A
:1015070092F78B838A8222E4F583F58275F080F463
:10151700A2D11322E4F583F58275F0C0747F22C04F
:101527000D85810D120FE5D00D2285825A85835BCB
:1015370085F05CE4F557F558F559850C5D9015264F
:1015470002160AC00D85810DE50D24FBF55DE4F556
:1015570057F558F559E50D24FBF8865A08865B08B8
:10156700865C90152612160AD00D22AA82C04DC09D
:101577004EC04F7489C0E07415C0E0C04BC04C8AA0
:1015870082221581158115810555E4B55502055649
:1015970022AA8274302AFA24C6500A74072AFA301B
:1015A70003034302208A82021572E582FAC4540FAC
:1015B700F582C002121598D002740F5AF5820215EF
:1015C7009885820EAB50AC51AD52AE53AF54750FE8
:1015D70020EF2FFFEE235401FA4207EB2BFBEC33EE
:1015E700FCED33FDEE33FEC3EF950E4008EFC395D8
:1015F7000EFF430301D50FD98B508C518D528E535B
:101607008F542285824B85834C85574D85584E854F
:10161700594FE4F555F556AA5AAB5BAC5C8A828BF9
:10162700838CF0121B11FD74012AF55AE43BF55B1C
:101637008C5CEDFA7003021AF2BA25028003021AD3
:10164700EAC204C205C206C207C208C209C20AC268
:101657000B755E00755F007DFFAE5AAF5BAB5C8EAE
:10166700828F838BF0121B11FAA3AE82AF838E5A3F
:101677008F5B8B5CBA25078A8212157280998A0460
:10168700BC300040268A04EC24C6401FBDFF11E58C
:101697005F75F00AA42A24D0F55F70C3D20580BF16
:1016A700ED75F00AA42A24D0FD80B4BA2E07BDFF39
:1016B700AE7D0080AA8A04BC6100400E8A04EC2437
:1016C7008540075302DFD2038002C203BA2002809B
:1016D70055BA2B02804BBA2D028041BA4202804B89
:1016E700BA43028050BA4403021895BA4603021857
:1016F700ABBA4903021895BA4C028034BA4F0302B9
:10170700189CBA500302182CBA5302804CBA5503DE
:101717000218A1BA58030218A60218AFD20402167B
:1017270066D206021666D207021666D20902166646
:10173700D20A02166630090AE55D14F8885D86024A
:10174700800FE55D24FEF8885D8603088604188B04
:10175700028A821215720218B8E55D24FDF8885DC9
:10176700860308860408860618188B508C518E52FB
:101777008B828C838EF0C005121AF9AB82AC83D0B2
:1017870005BDFF028B0520042CC3EB955F5026E5B2
:101797005FC39BF55FAC5F8C061C8C5FEE601475B6
:1017A7008220C003C004C005121572D005D004D032
:1017B7000380E48C5F8D048550828551838552F0C8
:1017C700121B11FDFA60308C051CC3E464808DF098
:1017D70063F08095F050208A82C003C0041215720E
:1017E700D004D003AD50AE51AF520DBD00010E8DE8
:1017F700508E518F5280C02004030218B8C3EB9556
:101807005F40030218B8E55FC39BF55FAC5F8C05CB
:101817001C8C5FED70030218B6758220C004121588
:1018270072D00480E9E55D24FDF8885D86050886A9
:101837000608860718188D508E518F52AD52BD80FD
:101847000040047A438014BD600040047A50800B46
:10185700BD400040047A4980027A588A82C0021249
:10186700157275823A121572758230121572758269
:1018770078121572D002BA4902800BBA500280065C
:101887008551821215B18550821215B18023D20875
:10189700755E0A801C755E088017755E0A80127572
:1018A7005E10800DD20B80098A8212157280028C1D
:1018B7005F300B5AE55D24FCF8885D8604088605D1
:1018C7000886060886071818188C508D518E528F77
:1018D7005375505F755121755280855061855162EE
:1018E70085526374012561FFE43562FCAD638F5057
:1018F7008C518D528561828562838563F0121B113D
:10190700FCFA700302161E8A8212157280CCE55EFD
:10191700700302161E75601730092BE55D14F888F1
:101927005DE6FD3395E0FEFFFC8D508E518F528CA6
:1019370053200862AC507D007E007F008C508D5193
:101947008E528F538050300A1FE55D24FCF8885D66
:1019570086040886050886060886071818188C5016
:101967008D518E528F53802EE55D24FEF8885D865B
:101977000408860518ED3395E0FEFF8C508D518ED7
:10198700528F53200810AC50AD517E007F008C5011
:101997008D518E528F53300825AC50AD51AE52E564
:1019A70053FF30E717C3E49CFCE49DFDE49EFEE48F
:1019B7009FFF8C508D518E528F538002C208D20CDC
:1019C700A8607C00755400855E82C004C0001215B3
:1019D700C8D000D004200C0DE554C4FDE6FE4DF63A
:1019E7001888608002A6540C8C03B20CE550455150
:1019F7004552455370CE88608C03E55F7003755F71
:101A070001200524200421EB04FCAD5FC3EC9D50AD
:101A170015758220C003C004C005121572D005D009
:101A270004D0031D80E68D5F30080E75822DC0033C
:101A3700121572D003155F8023EB602030060E75F8
:101A4700822BC003121572D003155F800F30070C6D
:101A5700758220C003121572D003155F200424ACD1
:101A67005F8C051C8C5FC3EB9D502B3005047D30CC
:101A770080027D208D82C003C004121572D004D06D
:101A87000380DEC3EB955F5008E55FC39BF55F807E
:101A970007755F0080028C5FA8608B041BEC6026D3
:101AA700B20C200C0A08E6C4540FFC8C548007863D
:101AB70004740F5CF554855482C003C00012159856
:101AC700D000D00380D420040302161EAB5F8B0422
:101AD7001BEC700302161E758220C003121572D00C
:101AE7000380EB8A8212157202161E85558285566F
:021AF700832248
:0B215F003C4E4F20464C4F41543E00C8
:101AF900AA82AB83121B116003A380F8C3E5829A03
:081B0900F582E5839BF58322C0
:0D008300758163121BA8E582600302007EF8
:101B110020F71430F6148883A88220F507E6A883FD
:101B210075830022E280F7E49322E022C2D5E583A7
:101B310030E70DD2D5E4C39582F582E49583F58330
:101B4100E50F30E70DB2D5E4C3950EF50EE4950F20
:101B5100F50F12129030D50BE4C39582F582E4950E
:101B610083F583226040F82582500274FFF582E8F4
:101B710024F8501ECCCBCAF9E4CC24F85014CBCABB
:101B8100F9E4CB24F8500BCAF9E4CA24F8500379DC
:101B9100002224086010F8C3EC13FCEB13FBEA13DA
:0B1BA100FAE913F9D8F1227582002246
:00000001FF
