:040000000200833245
:01000B0032C2
:0100130032BA
:01001B0032B2
:0100230032AA
:01002B0032A2
:01003300329A
:01003B003292
:01004300328A
:01004B003282
:01005300327A
:01005B003272
:01006300326A
:01006B003262
:01007300325A
:03007B000212E787
:0300DC0002007EA1
:05007E00120E3780FEA8
:1000DF00AA82C3EA950F5016C3E50E9A50048A0EF2
:1000EF008020C3E50F950E5019850F0E8014C3EABB
:1000FF00950E50048A0E800AC3E50E950F500385A6
:10010F000F0E850E822285822FC2847582001210F7
:10011F00C4E52F75F008A42400FB74F035F0FC74CF
:10012F00072BF582E43CF583E0FD74062BF582E4A2
:10013F003CF583E0F5302003030201E5E52F700362
:10014F000201E5747C252F50030201E5E52F14759C
:10015F00F008A4FCAEF0EC2400FFEE34F0F87406C7
:10016F002FF582E438F583E0FFE52F0475F008A43E
:10017F00F8A9F0E82400FAE934F0FB74062AF582B6
:10018F00E43BF583E0F50F85300E8F82C004C00588
:10019F00C006C000C0011200DF858230D001D00040
:1001AF00D006D005D004EC2400FCEE34F0FE74072A
:1001BF002CF582E43EF583E0FAE82400F8E934F008
:1001CF00F9740728F582E439F583E0F50F8D0E8A6F
:1001DF00821200DFAD82AB307A00AC287E00EBC319
:1001EF009CFBEA9EFAC3E49BE464808AF063F08090
:1001FF0095F05008E530C39528FA80027A008A30CE
:10020F008D027B00EAC39CFCEB9EFEC3E49CE4647E
:10021F00808EF063F08095F05007EDC39528FA803B
:10022F00027A008A0520010EE5300303543FF530B2
:10023F00ED0303543FFD7A00BA06004003020304A6
:10024F007405C39AF582852F08C002C0051210A14C
:10025F00D005D002EAC40354F8FBE530C39BFB8AF8
:10026F00047E000CBC00010EEEC40354F8CCC40392
:10027F00CC6CCC54F8CC6CFEAF307800C3EF9CE85C
:10028F0064808EF063F08095F040027B087408C3A1
:10029F009BF5F005F074FF800225E0D5F0FBFB8A9B
:1002AF00047E000CBC00010EEEC40354F8CCC40352
:1002BF00CC6CCC54F8CC6CFE8D077800C3EC9FEE61
:1002CF00648088F063F08095F04019EA04C4035409
:1002DF00F8FCC39DF5F005F07401800225E0D5F020
:1002EF00FBFC42038B82C002C005121035D005D033
:1002FF00020A020247D28422C2847508007582075F
:10030F001210A17A84758200C002121035D002DA61
:10031F00F4D284227A00C2847401B5270280077454
:10032F0002B5274780247508007582061210A17B3D
:10033F0000BB840040030203C2EB901EB293F58210
:10034F00C003121035D0030B80E7750800758206C5
:10035F001210A17B00BB84005059EB901FD393F573
:10036F0082C003121035D0030B80EA750E0A750F89
:10037F0000852282852383C0021215BAE582858308
:10038F00F0D00245F060027A19750800758206C038
:10039F00021210A1D0027B00BB84005016EA2B90F2
:1003AF001F3693F582C002C003121035D003D0025E
:1003BF000B80E5D28422C2847401B52702800B74AE
:1003CF0002B527030204550204AB750812758207A4
:1003DF001210A1E52224FEFAE52334FFFBC002C070
:1003EF000374DBC0E07420C0E07480C0E012167AA2
:1003FF00E58124FBF58175083A7582071210A1C0BB
:10040F0022C02374DBC0E07420C0E07480C0E0120F
:10041F00167AE58124FBF581750862758207121043
:10042F00A174022522FAE43523FBC002C00374DB5A
:10043F00C0E07420C0E07480C0E012167AE5812419
:10044F00FBF58102052475080D7582071210A17442
:10045F001E2522FAE43523FB740A2522FCE43523FA
:10046F00FDE52224F6FEE52334FFFFE52224E2F822
:10047F00E52334FFF9C002C003C004C005C006C0A5
:10048F0007C000C00174DEC0E07420C0E07480C0FB
:10049F00E012167AE58124F5F581807975080875E3
:1004AF0082071210A1E52224F6FAE52334FFFBC0E0
:1004BF0002C00374DBC0E07420C0E07480C0E0129F
:1004CF00167AE58124FBF58175083A7582071210BB
:1004DF00A1C022C02374DBC0E07420C0E07480C0D0
:1004EF00E012167AE58124FBF58175086C75820799
:1004FF001210A1740A2522FAE43523FBC002C003AF
:10050F0074DBC0E07420C0E07480C0E012167AE59E
:10051F008124FBF581D2842290DF077412F090DFE3
:10052F0008E4F090DF17E044C0F090DF1C74EAF0AD
:10053F0090DF1D742AF090DF1EE4F090DF1F741F10
:10054F00F090DF237488F090DF247431F090DF2572
:10055F007409F090DF14E4F0227401B527028007CC
:10056F007402B52710800790DF0C74ECF02290DF37
:10057F000C740CF02290DF0C746CF022AA82AB8307
:10058F00ACF0FDC002C003C004C0051214E3AE827C
:10059F00AF83A8F0F9C006C007C000C0019030E9D2
:1005AF0075F025743B1213E9AE82AF83A8F0F9E51D
:1005BF008124FCF5818E828F8388F0E91214F6AEC8
:1005CF0082AF83A8F0D005D004D003D00290DF090A
:1005DF00E8F090DF0AEFF07F007800790090DF0BF2
:1005EF00EEF0E526700FC3EA9480EB944BEC94F495
:1005FF00ED941240227401B5260CC3EB94BAEC941F
:10060F0045ED941940117402B52613C3EB9474ECA5
:10061F00948BED9432500790DF1D740AF02290DF17
:10062F001D742AF02212058B75E10175E10290000D
:10063F0002120FD6E53175F008A4FAABF0EA2400E8
:10064F00FCEB34F0FD90DF09E08C828D83F0EA241F
:10065F0000FAEB34F0FB74012AFCE43BFD90DF0A57
:10066F00E08C828D83F074022AFCE43BFD90DF0B5B
:10067F00E08C828D83F074032AFCE43BFD90DF1C39
:10068F00E08C828D83F074042AFCE43BFD90DF1D27
:10069F00E08C828D83F074052AFCE43BFD90DF1E15
:1006AF00E08C828D83F074062AFCE43BFD90DF3AE8
:1006BF00E0FE6306808C828D83EEF074072AF5824C
:1006CF00E43BF583E4F075E10422858232858333C0
:1006DF007401B5270280077402B5274F8013754147
:1006EF00037542017535447536C3E4F537F5388027
:1006FF006F75412A75421475358875362B75370A13
:10070F00753800740A2532F582E43533F583750E9A
:10071F0014750F001213C085820E85830F9000147D
:10072F0012152F858232858333803575410D7542C1
:10073F000575351075360D7537037538008532829E
:10074F00853383A3A3750E05750F001213C0858221
:10075F000E85830F90000512152F85823285833306
:10076F00C3746795327402953340030208BF753422
:10077F0002AC417D0074C2C39CFE74039DFFE54231
:10078F00C313F879002EF582E93FF583AE427F005F
:10079F008E0E8F0FC004C005C006C007C000C00179
:1007AF00121C5DAA82AB83D001D000D007D0068E79
:1007BF000E8F0F8A828B83C006C007C000C0011244
:1007CF00152F858243858344D001D000D007D006F2
:1007DF00D005D00474ED2CF58274023DF5838E0E96
:1007EF008F0FC004C005C006C007C000C001121C97
:1007FF005DAA82AB83D001D000D007D0068E0E8FBA
:10080F000F8A828B83C006C007C000C00112152F4C
:10081F00858245858346D001D000D007D006D0050C
:10082F00D00474192CF58274013DF5838E0E8F0F51
:10083F00C004C005C006C007C000C001121C5DAADD
:10084F0082AB83D001D000D007D0068E0E8F0F8AD7
:10085F00828B83C006C007C000C00112152FAA8269
:10086F00AB83D001D000D007D006D005D00474E1FF
:10087F00C39CFC74019DFDE82CF582E93DF5838E48
:10088F000E8F0FC002C003C006C007121C5DAC82E2
:10089F00AD83D007D0068E0E8F0F8C828D831215ED
:1008AF002FAC82AD83D003D0027E007F01020A5E9F
:1008BF00C3747195327401953340030209977534EF
:1008CF000185414775480074E1C39547F5497401A7
:1008DF009548F54AE542C313F8884B754C00E54B34
:1008EF002549F582E54C354AF583854249754A001D
:1008FF0085490E854A0F121C5D85490E854A0F12D8
:10090F00152F858243858344747A2547F5827401B8
:10091F003548F58385490E854A0F121C5D85490EB2
:10092F00854A0F12152F85824585834674ED25471D
:10093F00F58274023548F58385490E854A0F121CDE
:10094F005D85490E854A0F12152FAA82AB837469F4
:10095F00C39547F874019548F9E54B28F582E54CA6
:10096F0039F58385490E854A0FC002C003121C5DFD
:10097F0085490E854A0F12152FAC82AD83D003D057
:10098F00027E027F00020A5E75340085414B754C72
:10099F00007469C3954BF5497401954CF54AE542CE
:1009AF00C313F88847754800E5472549F582E548A0
:1009BF00354AF583854249754A0085490E854A0FA8
:1009CF00121C5D85490E854A0F12152F85824385AE
:1009DF0083447419254BF5827401354CF583854991
:1009EF000E854A0F121C5D85490E854A0F12152F71
:1009FF00858245858346747A254BF5827401354C83
:100A0F00F58385490E854A0F121C5D85490E854A6F
:100A1F000F12152FAA82AB8374C2C3954BF87403C0
:100A2F00954CF9E54728F582E54839F58385490E58
:100A3F00854A0FC002C003121C5D85490E854A0FFF
:100A4F0012152FAC82AD83D003D0027E017F02C37B
:100A5F00E5439532E544953350138543328544334E
:100A6F00E526B534248E348A328B33801CC3E532AD
:100A7F009545E53395465011854532854633E52634
:100A8F00B534068F348C328D33853426E4B5260287
:100A9F00801F7401B52634753980753AD2753B873E
:100AAF00753C16753D40753E7A753FAB75401C80A1
:100ABF0032753940753AB8753BBF753C10753D407E
:100ACF00753E6C753F847540158018753940753AC1
:100ADF00D5753BA4753C2C753D80753EF4753F561E
:100AEF0075403985320E85330F75100075110090E2
:100AFF00424075F00FE412154CAE82AF83A8F0F9A7
:100B0F008E028F0388048905752A42C3E53D9AE555
:100B1F003E9BE53F9CE5409D4047747C252A404124
:100B2F00852A318A828B838CF0EDC002C003C0040A
:100B3F00C005C006C007C000C001120634D001D0E6
:100B4F0000D007D006D005D004D003D002E5352A57
:100B5F00FAE5363BFBE5373CFCE5383DFD052A80E1
:100B6F00AAEEC39535FAEF9536FBE89537FCE99574
:100B7F0038FD752942C3EA9539EB953AEC953BED73
:100B8F00953C4036E529603215298529318A828BBB
:100B9F00838CF0EDC002C003C004C005120634D030
:100BAF0005D004D003D002EAC39535FAEB9536FB96
:100BBF00EC9537FCED9538FD80BB853222853323CC
:100BCF001210DC1203231203C58532828533832270
:100BDF00E58275F008A4FAABF0EA2400F582EB3455
:100BEF00F0F583E090DF09F0EA2400FAEB34F0FB34
:100BFF008A828B83A3E090DF0AF08A828B83A3A380
:100C0F00E090DF0BF08A828B83A3A3A3E090DF1C1D
:100C1F00F08A828B83A3A3A3A3E090DF1DF08A82C7
:100C2F008B83A3A3A3A3A3E090DF1EF022858227CB
:100C3F001205688522828523830206D93001047A42
:100C4F000480027A107401B5270280077402B52759
:100C5F000A80047B0180067B1480027B05C002C0E2
:100C6F00031212C2AC82D003D002BC0103020E12D7
:100C7F00BC0203020D48BC0303020D09BC3C030276
:100C8F000D6CBC3E03020D54BC4103020DAFBC46BC
:100C9F0003020DEEBC4803020DFABC4D03020DE238
:100CAF00BC4E028037BC5103020D82BC5303020DB0
:100CBF003CBC5403020D30BC5502802FBC57028040
:100CCF000DBC5E03020D82BC8703020DAF22E4F55B
:100CDF002BF52CF52DF52EF582020C3CE4F52BF5BA
:100CEF002CF52DF52E758201020C3CE4F52BF52C1D
:100CFF00F52DF52E758202020C3CE4F52BF52CF543
:100D0F002DF52EB5270280077401B5270E800675C5
:100D1F008201020C3C758202020C3C758200020CAF
:100D2F003CE4F52BF52CF52DF52ED20122E4F52B15
:100D3F00F52CF52DF52EC20122E4F52BF52CF52D12
:100D4F00F52EB20122E4F52BF52CF52DF52E8B04A3
:100D5F007D00EC2524F524ED3525F52522E4F52B32
:100D6F00F52CF52DF52EFCE524C39BF524E5259CEC
:100D7F00F52522E4F52BF52CF52DF52EAB287C006F
:100D8F008A057E00ED2BFBEE3CFCC3EB94D0EC64AC
:100D9F008094805006EA2528FB80027BD08B282286
:100DAF00E4F52BF52CF52DF52EAB287C008A057E6E
:100DBF0000EBC39DFBEC9EFCC3E49BE464808CF0D2
:100DCF0063F08095F05007E528C39AFA80027A0005
:100DDF008A2822E4F52BF52CF52DF52EB20022E40E
:100DEF00F52BF52CF52DF52EB20322121298AA82AF
:100DFF007B00BA4832BB002FE4F52BF52CF52DF50F
:100E0F002E80E87AFAEA6019C002121298AB82D0EB
:100E1F0002BB010D900002C002120FD6D0021A8041
:100E2F00E4EAB4010092022275229375230375241C
:100E3F0093752503752602752700C200C201752818
:100E4F0000752900752A83D203C202E4F52BF52C15
:100E5F00F52DF52E120FFE12101212101F12103F49
:100E6F00120527852782120C3C7A00BA84004003B2
:100E7F00020F20EA90205793FBC395295003020FCE
:100E8F001CC3E52A9B5003020F1C8B82C002C003B8
:100E9F00120BDFD00375E1028B82C003120115D054
:100EAF0003D0027401B527117C5E7D018C068D077E
:100EBF001CBCFF011DEE4F70F3EB75F008A424006E
:100ECF00FB74F035F0FC74062BFDE43CFE90DF3A2A
:100EDF00E0FF6307808D828E83EFF030002174076F
:100EEF002BFFE43CF88D828E83E0FD8F828883E0B8
:100EFF00FEC39D40028E058F828883EDF0800B74B8
:100F0F00072BF582E43CF583E4F075E1040A020E49
:100F1F007A120C4BAA2BAB2CAC2DAD2E052BE4B5B6
:100F2F002B0C052CB52C07052DB52D02052EC374E2
:100F3F004C9A741D9BE49CE49D5002D202300268CF
:100F4F007A00C0021210DCD0027BFFBB00028028A7
:100F5F007C00BC0400501EEB2AFDC39A92A08D02A8
:100F6F00900002C002C003C004120FD6D004D003F9
:100F7F00D0020C80DD1B80D3C28412108CD284125D
:100F8F0012F07AFAEA6019C002121298AB82D002FC
:100F9F00BB010D900002C002120FD6D0021A80E4DE
:100FAF00EA7003020E5880D7E522B52408E523B571
:100FBF002503020E788524828525831206D9858222
:070FCF0024858325020E7842
:101CDC00000000000000005E0000000E000E002856
:101CEC007C287C2808547C54202610086400285436
:101CFC0028400000000E0000003C42000000423C66
:101D0C000000005438540010107C1010008060202B
:101D1C00001010101000006060000020100804007B
:101D2C00003C423C0000447E40004462524C002285
:101D3C004A4A360018147E10002E4A4A32003C4A99
:101D4C004A300002621A0600344A4A34000C5252DD
:101D5C003C00006C6C0000806C2C000000102844CF
:101D6C0000282828280000442810000004520C00E9
:101D7C003C425A1C007C12127C007E4A4A34003CC5
:101D8C00424224007E42423C007E4A4A42007E0A85
:101D9C000A02003C425274007E08087E0000427E1B
:101DAC0042002040403E007E182442007E404040CD
:101DBC00007E0C0C7E007E0C307E003C42423C00CF
:101DCC007E12120C003C6242BC007E12324C00248B
:101DDC004A52240000027E02003E40403E001E603B
:101DEC00601E007E30307E006618186600000E7093
:101DFC000E0062524A4600007E4242000408102047
:101E0C00000042427E0000040204004040404000BA
:101E1C00000204000030482878007E48483000302A
:101E2C00484800003048487E003068581000107C4C
:101E3C0012040050A8A898007E0808700000487A88
:101E4C0040000040807A007E1028400000427E4016
:101E5C00007810187000780808700030484830007E
:101E6C00F848483000304848F8007808081000500E
:101E7C0058682800083E4840003840407800003838
:101E8C004038007860607800483030480018A04036
:101E9C003800486858480000083C420000007E00AA
:101EAC000000423C08000E020E020E02FE020E0260
:101EBC000E020E020E023E020E020E020E020E0266
:101ECC00FE020E020E020E020E023E020E020E0266
:101EDC000E020E02FE020E020E020E020E023E0256
:101EEC000E020E020E020E02FE020E020E020E0276
:101EFC000E023E020E020E020E020E02FE020E0236
:101F0C000E020E020E023E020E020E020E020E0215
:101F1C00FE020E020E020E020E023E020E020E0215
:101F2C000E020E02FE020E020E02020E020202024D
:101F3C000E020202020E02020202FE020202020E55
:101F4C00020202020E020202020E020202020E0241
:101F5C000202023E020202020E020202020E020201
:101F6C0002020E020202020E02020202FE02020231
:101F7C00020E020202020E020202020E0202020211
:101F8C000E020202023E020202020E020202020EC5
:101F9C00020202020E020202020E02020202FE0201
:101FAC000202020E020202020E020202020E0202E1
:101FBC0002020E020202023E020202020E020202A1
:101FCC00020E020202020E0E02020E0202FE0202B9
:101FDC000E02020E02020E02020E0202FE02020E9D
:101FEC0002020E02020E02020E0202FE02020E0299
:101FFC00020E02020E02020E0202FE02020E020289
:10200C000E02020E02020E0202FE02020E02020E6C
:10201C0002020E02020E0202FE02020E02020E0268
:10202C00020E02020E0202FE02020E02020E020258
:10203C000E02020E0202FE02020E02020E02020E3C
:10204C0002020E0202FE02020E0202000B16212CEC
:10205C0037424D58636E79010C17222D38434E5977
:10206C00646F7A020D18232E39444F5A65707B0326
:10207C000E19242F3A45505B66717C040F1A2530DB
:10208C003B46515C67727D05101B26313C47525D07
:10209C0068737E06111C27323D48535E69747F07B6
:1020AC00121D28333E49545F6A758008131E29346B
:1020BC003F4A55606B768109141F2A35404B566197
:1020CC006C77820A15202B36414C57626D7883252C
:1020DC0064002564202025642020256420202564AC
:0120EC0000F3
:100FD600AA82AB831ABAFF011BC3E49AE464808B2E
:100FE600F063F08095F0500F7CB07D041CBCFF01CF
:100FF6001DEC4D70F780DD2253BEFBE5BE30E6FBEF
:1010060053C6B8E5C620E6FB43BE042243F3284395
:10101600FD1443FE0275FF192275860075C2AA7576
:10102600C530228582C1E58630E1FB5386FD22D29A
:1010360082021029C282021029C291900001120F69
:10104600D6D291C284D2A07582E212103A75822459
:1010560012103A75828112103A75826012103A7532
:1010660082E612103A75820012103A75822F12101B
:101076003A7582A112103A7582AF12103A7582A49F
:1010860012103AD284227582AC12103A7582AE12D0
:10109600103A7582A512103AC2A022AA8274B02A0A
:1010A600F58212103A740F5508F58212103AE508C7
:1010B600C4540FFA740F5A2410F58202103AAA8209
:1010C600743F5A4440F58202103AAA8274015A4487
:1010D600A6F58202103AC2847582001210C4758287
:1010E600001210D07A00EA24F640217508008A82A0
:1010F600C0021210A1D0027B84758200C002C00318
:10110600121035D003D002DBF00A80DAD28422AA8C
:101116008253027FC3EA648094A04053EA24E0C26B
:10112600D575F00530E704B2D5F404A430D50AF439
:101136002401C5F0F43400C5F0FAABF07C00BC0520
:10114600005026EA24EDFDEB3420FEEC2DF582E47A
:101156003EF583E493F582C002C003C00412103545
:10116600D004D003D0020C80D5758200021035223F
:1020ED00000000000000005E0000000E000E002841
:1020FD007C287C2808547C54202610086400285421
:10210D0028400000000E0000003C42000000423C50
:10211D000000005438540010107C10100080602016
:10212D000010101010000060600000201008040066
:10213D00003C423C0000447E40004462524C002270
:10214D004A4A360018147E10002E4A4A32003C4A84
:10215D004A300002621A0600344A4A34000C5252C8
:10216D003C00006C6C0000806C2C000000102844BA
:10217D0000282828280000442810000004520C00D4
:10218D003C425A1C007C12127C007E4A4A34003CB0
:10219D00424224007E42423C007E4A4A42007E0A70
:1021AD000A02003C425274007E08087E0000427E06
:1021BD0042002040403E007E182442007E404040B8
:1021CD00007E0C0C7E007E0C307E003C42423C00BA
:1021DD007E12120C003C6242BC007E12324C002476
:1021ED004A52240000027E02003E40403E001E6026
:1021FD00601E007E30307E006618186600000E707E
:10220D000E0062524A4600007E4242000408102031
:10221D00000042427E0000040204004040404000A5
:10222D00000204000030482878007E484830003015
:10223D00484800003048487E003068581000107C37
:10224D0012040050A8A898007E0808700000487A73
:10225D0040000040807A007E1028400000427E4001
:10226D000078101870007808087000304848300069
:10227D00F848483000304848F800780808100050F9
:10228D0058682800083E4840003840407800003823
:10229D004038007860607800483030480018A04021
:1022AD003800486858480000083C420000007E0095
:0622BD000000423C080095
:1011760053FD3D53FE034380C24390FC7A007B003F
:10118600BB08004003021294EBFC24F84057EB2BFB
:101196002B90119B730211B30211B50211BD0211FE
:1011A600C50211CD0211D50211DD0211E5803643CB
:1011B600FD025380FD802E43FE045390FB802643A0
:1011C600FE085390F7801E43FE105390EF8016439F
:1011D600FE205390DF800E43FE405390BF800643AF
:1011E600FE8053907FAD807E00EDF4FDEEF4FEEDC3
:1011F60030E1027C01AD907E00EDF4FDEEF4FEEDF3
:1012060030E2027C02AD907E00EDF4FDEEF4FEEDE0
:1012160030E3027C03AD907E00EDF4FDEEF4FEEDCE
:1012260030E4027C04AD907E00EDF4FDEEF4FEEDBC
:1012360030E5027C05AD907E00EDF4FDEEF4FEEDAA
:1012460030E6027C06AD907E00EDF4FDEEF4FEED98
:1012560030E7027C07AD807E00EDF4FDEEF4FEED96
:1012660030E6027C08AD807E00EDF4FDEEF4FEED86
:1012760030E7027C09ECB50302800DEA75F00AA49A
:101286002C9022C393F582220B8B02021186758263
:101296000022121176AA82C002121176AB82D00207
:1012A600EAB503028007121176AA8280EA53FD3D51
:1012B60053FE034380C24390FC8A8222121298E5B1
:1012C60082FAB5090280048A0980027A008A82229B
:1022C30000004F4B4E4D0150000000005947432082
:1022D3003C2C033E00000051574552545549000021
:1022E300000041534446484A0000000000825A5807
:1022F3005642000000000000838485860000000031
:1023030000000002875E00000000000000000A4C8D
:1012D600538ABFC2EB758D40439A10438C02D2AF3E
:1012E60022538ABFC2EB53BEFC3285D50A85D40B86
:1012F60090F4207407F090F4217407F090F42274AF
:1013060007F090F4237407F090F4247407F090F437
:10131600257407F090F4267404F090F427E4F09016
:10132600F428F090F42974DFF090F42A74BEF0905B
:10133600F42BE4F090F42C7407F090F42D7420F064
:1013460090F42E7442F053BEFBE5BE30E5FBAAC610
:1013560074F85A4441F5C6E5C630E6FB43BE0412AE
:1013660012D685D50A85D40B43D6817A207BF48B99
:101376000290F427EAF07A207BF490F428EAF07AD7
:10138600277BF48BD57A277BF48AD475D60143C79D
:101396000243BE07000000E5BE540370030213AE0D
:1013A60075D701004387010053C7FD850AD5850B14
:1013B600D475D601E5BE30E5FB227A10E4FBFCE5E8
:1013C6008225E0F582E58333F583EB33FBEC33FCD2
:1013D600EB950EF5F0EC950F4006FCABF043820161
:1013E600DADD2212148CBC0003021628EF60FA30F4
:1013F600D502B2D1E583B4FF0302163EE582B4FFFF
:101406000302163E258340072482400B0216282439
:101416008314500302163EF582EA8DF0A4A8F0EA82
:101426008EF0A428F8E435F0F9EB8DF0A428E93520
:10143600F0F9E433CA8FF0A429F9EA35F0FAEBF8AB
:101446008EF0A429F9EA35F0FAE433FBEC8DF0A42A
:1014560029F9EA35F0FAE43BFBE88FF0A42AFAEB27
:1014660035F0FBE433CCFD8EF0A42AFAEB35F0FB25
:10147600E43CFCED8FF0A42BFBEC35F0FC20E703FD
:101486001214BA021607AA82AB83A2F73392D1606E
:1014960002D2F7F582ACF0E58124F9F8E6FD08E61C
:1014A600FE0886F008E6A2F73392D56002D2F7F579
:0414B60083AFF022EE
:0600B200E478FFF6D8FD22
:1014BA007804EC700DC9CACBFCE58224F8F582D811
:1014CA00F122782020E7111582C3E933F9EA33FAC9
:0914DA00EB33FBEC33FCD8EC22EF
:100090007900E94400601B7A0090231E782F759345
:1000A000F4E493F2A308B800020593D9F4DAF275E8
:0200B00093FFBC
:1014E300FCABF0AA83A982749EC2D1F5821214BA0E
:1014F3000216077F9E12151D30D103021628C3EF73
:101503009582500974FFF5F0F583F5822279001274
:101513001C9589828A838BF0EC22AA82AB83A2F783
:101523003392D16002D2F7F582ACF022E582850EC8
:10153300F0A4C582C0F0850FF0A4D0F025F0C583D8
:10154300850EF0A42583F58322AAF0FBE582850EA0
:10155300F0A4FCADF0E583850EF0A42DFDE435F099
:10156300FEE582850FF0A42DFDE5F03EFEE433FF9A
:10157300EA850EF0A42EFEE5F03FFFE583850FF02C
:10158300A42EFEE5F03FFFE5828510F0A42EFEE5D4
:10159300F03FFFEB850EF0A42FFFEA850FF0A42F99
:1015A300FFE5838510F0A42FFFE5828511F0A42FBA
:1015B3008EF08D838C8222E50E450F60467A01E51D
:1015C3000E25E0F50EE50F334012F50FE582950E7B
:1015D300E583950F40030A80E6C3E50F13F50FE596
:1015E3000E13F50EC3E582950EF5F0E583950F40D6
:1015F30005F58385F082C3E50F13F50FE50E13F5AB
:041603000EDAE122F8
:1000B8007800E84400600A79007593F0E4F309D801
:1000C800FC782FE84404600C790590F000E4F0A374
:0400D800D8FCD9FA7D
:10160700B98003EA13B34010EA2401FAE43BFBE490
:101617003CFC50047C800582BC000EBB000BBA006A
:1016270008E4F5F0F583F58222A2D1E582138CF068
:1016370092F78B838A8222E4F583F58275F080F432
:10164700A2D11322E4F583F58275F0C0747F22C01E
:101657000D85810D121115D00D2285825C85835D64
:1016670085F05EE4F559F55AF55B850C5F901656E3
:1016770002173AC00D85810DE50D24FBF55FE4F5F2
:1016870059F55AF55BE50D24FBF8865C08865D087D
:10169700865E90165612173AD00D22AA82C04FC006
:1016A70050C05174B9C0E07416C0E0C04DC04E8A36
:1016B70082221581158115810557E4B55702055812
:1016C70022AA8274302AFA24C6500A74072AFA30EA
:1016D70004034302208A820216A2E582FAC4540F49
:1016E700F582C0021216C8D002740F5AF58202168C
:1016F700C885820EAB52AC53AD54AE55AF56750F7D
:1017070020EF2FFFEE235401FA4207EB2BFBEC33BC
:10171700FCED33FDEE33FEC3EF950E4008EFC395A6
:101727000EFF430301D50FD98B528C538D548E5521
:101737008F562285824D85834E85594F855A508510
:101747005B51E4F557F558AA5CAB5DAC5E8A828BBA
:10175700838CF0121C41FD74012AF55CE43BF55DB6
:101767008C5EEDFA7003021C22BA25028003021C6C
:101777001AC205C206C207C208C209C20AC20BC200
:101787000C7560007561007DFFAE5CAF5DAB5E8E72
:10179700828F838BF0121C41FAA3AE82AF838E5CDB
:1017A7008F5D8B5EBA25078A821216A280998A04FA
:1017B700BC300040268A04EC24C6401FBDFF11E55B
:1017C7006175F00AA42A24D0F56170C3D20680BFE0
:1017D700ED75F00AA42A24D0FD80B4BA2E07BDFF08
:1017E700AE7D0080AA8A04BC6100400E8A04EC2406
:1017F7008540075302DFD2048002C204BA20028068
:1018070055BA2B02804BBA2D028041BA4202804B57
:10181700BA43028050BA44030219C5BA46030219F3
:10182700DBBA49030219C5BA4C028034BA4F030226
:1018370019CCBA500302195CBA5302804CBA55034B
:101847000219D1BA58030219D60219DFD2050217B5
:1018570096D207021796D208021796D20A0217964F
:10186700D20B021796300A0AE55F14F8885F8602E2
:10187700800FE55F24FEF8885F8603088604188BCF
:10188700028A821216A20219E8E55F24FDF8885F32
:10189700860308860408860618188B528C538E54C4
:1018A7008B828C838EF0C005121C29AB82AC83D04F
:1018B70005BDFF028B0520052CC3EB95615026E57E
:1018C70061C39BF561AC618C061C8C61EE6014757D
:1018D7008220C003C004C0051216A2D005D004D0D0
:1018E7000380E48C618D048552828553838554F08F
:1018F700121C41FDFA60308C051CC3E464808DF036
:1019070063F08095F050208A82C003C0041216A2AB
:10191700D004D003AD52AE53AF540DBD00010E8DB0
:10192700528E538F5480C02005030219E8C3EB95EC
:101937006140030219E8E561C39BF561AC618C0561
:101947001C8C61ED70030219E6758220C004121623
:10195700A2D00480E9E55F24FDF8885F8605088644
:101967000608860718188D528E538F54AD54BD80C4
:101977000040047A438014BD600040047A50800B15
:10198700BD400040047A4980027A588A82C0021218
:1019970016A275823A1216A27582301216A27582A5
:1019A700781216A2D002BA4902800BBA50028006FA
:1019B7008553821216E18552821216E18023D209DD
:1019C70075600A801C756008801775600A8012753B
:1019D7006010800DD20C80098A821216A280028CB8
:1019E70061300C5AE55F24FCF8885F860408860599
:1019F7000886060886071818188C528D538E548F40
:101A070055755213755323755480855263855364F6
:101A170085546574012563FFE43564FCAD658F5219
:101A27008C538D548563828564838565F0121C41D0
:101A3700FCFA700302174E8A821216A280CCE56068
:101A4700700302174E756217300A2BE55F14F8888A
:101A57005FE6FD3395E0FEFFFC8D528E538F548C6D
:101A670055200962AC527D007E007F008C528D5359
:101A77008E548F558050300B1FE55F24FCF8885F2C
:101A870086040886050886060886071818188C52E3
:101A97008D538E548F55802EE55F24FEF8885F8620
:101AA7000408860518ED3395E0FEFF8C528D538EA2
:101AB700548F55200910AC52AD537E007F008C52D5
:101AC7008D538E548F55300925AC52AD53AE54E526
:101AD70055FF30E717C3E49CFCE49DFDE49EFEE45C
:101AE7009FFF8C528D538E548F558002C209D20DA1
:101AF700A8627C00755600856082C004C00012167B
:101B0700F8D000D004200D0DE556C4FDE6FE4DF6D5
:101B17001888628002A6560C8C03B20DE552455315
:101B27004554455570CE88628C03E5617003756135
:101B370001200624200521EB04FCAD61C3EC9D5078
:101B470015758220C003C004C0051216A2D005D0A7
:101B570004D0031D80E68D6130090E75822DC00308
:101B67001216A2D00315618023EB602030070E7593
:101B7700822BC0031216A2D0031561800F30080C08
:101B8700758220C0031216A2D0031561200524AC6C
:101B9700618C051C8C61C3EB9D502B3006047D3096
:101BA70080027D208D82C003C0041216A2D004D00B
:101BB7000380DEC3EB95615008E561C39BF5618047
:101BC7000775610080028C61A8628B041BEC60269C
:101BD700B20D200D0A08E6C4540FFC8C5680078608
:101BE70004740F5CF556855682C003C0001216C8F0
:101BF700D000D00380D420050302174EAB618B04BD
:101C07001BEC700302174E758220C0031216A2D078
:101C17000380EB8A821216A202174E8557828558D7
:021C2700832216
:0B2313003C4E4F20464C4F41543E0012
:101C2900AA82AB83121C416003A380F8C3E5829AA0
:081C3900F582E5839BF583228F
:0D008300758165121CD8E582600302007EC5
:101C410020F71430F6148883A88220F507E6A883CC
:101C510075830022E280F7E49322E022C2D5E58376
:101C610030E70DD2D5E4C39582F582E49583F583FF
:101C7100E50F30E70DB2D5E4C3950EF50EE4950FEF
:101C8100F50F1213C030D50BE4C39582F582E495AC
:101C910083F583226040F82582500274FFF582E8C3
:101CA10024F8501ECCCBCAF9E4CC24F85014CBCA8A
:101CB100F9E4CB24F8500BCAF9E4CA24F8500379AB
:101CC100002224086010F8C3EC13FCEB13FBEA13A9
:0B1CD100FAE913F9D8F1227582002215
:00000001FF
